:020000040000FA
:06000000E2EF5CF01200CB
:0600080004EF50F01200AD
:060018000CEF50F0120095
:06A00000E2EF5CF012002B
:02A00600120046
:06A008001CEF50F01200F5
:02A00E00000050
:03A010000000004D
:06A0180025EF50F01200DC
:02A01E0002003E
:10A020000EA000007B00000005000000B5B6000097
:08A030008400000001000000A3
:08A03800DACFE4FFE2CFDAFF0A
:10A04000E652E552E5CFDAFF1100D8CFE4FFE0CFCA
:10A05000E4FFE46EDACFE4FFE2CFDAFFE652E55246
:10A06000E5CFDAFFE550E5CFE0FFE5CFD8FF100000
:10A07000A1EC59F00CEC5AF024EC57F067EC54F0DA
:10A08000E66A4CEC55F0E552120021EC5CF0000958
:10A0900001E1FBD70F014869496938EF50F081B001
:10A0A00031D0E66A020EE66EEF0EE66EB90EE66E8F
:10A0B0004EEC56F0E552E552E552E5527A0EE66E68
:10A0C00085EC55F0E55200017CC014F07DC015F020
:10A0D0007EC016F07FC017F07C2B000E7D237E2300
:10A0E0007F23D8800A0E1454000E1554000E165407
:10A0F000000E175406E27C6B7D6B7E6B7F6B010E4E
:10A100007B6F23D0E66A020EE66EEF0EE66EB90EA6
:10A11000E66E4EEC56F0E552E552E552E5527B0E06
:10A12000E66E85EC55F0E55200017B050EE17C51B1
:10A130007D117E117F1104E17B6B010E08D005D0EB
:10A140007C07000E7D5B7E5B7F5B000E00D0120003
:10A15000D9CFE6FFE1CFD9FF200EE126C30EC2140E
:10A160001009C26EC282C2B2FED7D950020FE66E8B
:10A17000000EDA20E66EC3CFE6FFC4CFE6FF5BEC4D
:10A180005BF0E552E552E552E552E66AE66AD950DF
:10A19000020FE66E000EDA20E66E88EC56F0E5520D
:10A1A000E552E552E552E80EC35C030EC4580BE2DB
:10A1B000120EE66EB00EE66E200EE66E22EC56F043
:10A1C000E552E552E552640EC35C000EC4580BE242
:10A1D0000C0EE66EB00EE66E200EE66E22EC56F029
:10A1E000E552E552E5520A0EC35C000EC4580BE27C
:10A1F000060EE66EB00EE66E200EE66E22EC56F00F
:10A20000E552E552E5521E0EE66EB00EE66E5B0EAE
:10A21000E66E22EC56F0E552E552E552500EE66E3F
:10A22000B00EE66E5D0EE66E22EC56F0E552E5529B
:10A23000E552230EDE6EDD6ADECF14F0DDCF15F0C1
:10A24000153404E214504B08000E155410E3DFCF10
:10A25000E6FFB00EE66E2D0EE66E22EC56F0E552ED
:10A26000E552E552DF2A010E01E3DB2AE5D7C350B0
:10A27000C4100CE1230EE66EF00EE66E4F0EE66E95
:10A2800022EC56F0E552E552E55226D0C350C410F8
:10A2900023E0C3CF14F0C4CF15F0320E0B6E0C6A5E
:10A2A00014C006F015C007F0BCEC5CF006C014F05A
:10A2B00007C015F0010ED89014361536E806FBE1FC
:10A2C000230E1424E66EF00EE66E4F0EE66E22ECC0
:10A2D00056F0E552E552E552200EE15C02E2E16AF9
:10A2E000E552E16EE552E7CFD9FF1200D9CFE6FF84
:10A2F000E1CFD9FF080EE126E66AA4EC59F0E55259
:10A30000020EF3CFDBFF030EF4CFDBFFE66EA4EC0F
:10A3100059F0E552F3CFDEFFF4CFDDFF010EE66E1C
:10A32000A4EC59F0E552040EF3CFDBFF050EF4CF99
:10A33000DBFF020EE66EA4EC59F0E552060EF3CFF9
:10A34000DBFF070EF4CFDBFF130EC26E6E0EE66E60
:10A35000B20EE66E790EE66E22EC56F0E552E5524C
:10A36000E552D9CFE9FFDACFEAFF200ED880EE54CC
:10A37000030EED540CE2640EE66EB20EE66E6C0E49
:10A38000E66E22EC56F0E552E552E5520BD0640E33
:10A39000E66EB20EE66E4C0EE66E22EC56F0E5521C
:10A3A000E552E552D950020FE96EDACFEAFF200EEE
:10A3B000D880EE54030EED540CE2780EE66E030ED8
:10A3C000E66E720EE66E22EC56F0E552E552E5526C
:10A3D0000BD0780EE66EB20EE66E520EE66E22ECF2
:10A3E00056F0E552E552E552D950040FE96EDACF46
:10A3F000EAFFC50ED880EE54030EED540BE26E0E4C
:10A40000E66EB10EE66E7D0EE66E22EC56F0E5527B
:10A41000E552E552040EDBCF14F0050EDBCF15F04C
:10A42000C00E145C030E15580BE26E0EE66EB10EF4
:10A43000E66E550EE66E22EC56F0E552E552E55218
:10A44000D950060FE96EDACFEAFFD40ED880EE5469
:10A45000030EED540BE26E0EE66EB30EE66E7C0E4E
:10A46000E66E22EC56F0E552E552E552060EDBCFE1
:10A4700014F0070EDBCF15F0CF0E145C030E155849
:10A480000BE26E0EE66EB30EE66E440EE66E22EC46
:10A4900056F0E552E552E552080EE15C02E2E16A4F
:10A4A000E552E16EE552E7CFD9FF1200D9CFE6FFC2
:10A4B000E1CFD9FF1C0EE126020EE66E07EC58F044
:10A4C000E552E76E1A0EE7CFDBFF030EE66E07ECF0
:10A4D00058F0E552E76E1B0EE7CFDBFFDE6ADD6A60
:10A4E000DBCF14F014C015F0146A14C0DEFF15C0E1
:10A4F000DDFF1A0EDB50DF12D9CFE9FFDACFEAFF1A
:10A50000060E0F0B06E0EC52D890ED32EF32E80663
:10A51000FAE1010EDB50020B07E0D9CFE9FFDACFF9
:10A52000EAFFEE52FC0EED12DECF14F0DDCF15F097
:10A53000D89014361536D8901436153614C0DEFF70
:10A5400015C0DDFF1A0EDB50E76E000EDFCF14F0F2
:10A55000010EDBCF15F0E750141214C0DEFF15C05A
:10A56000DDFFD950060FE66E000EDA20E66EDECF74
:10A57000E6FFDDCFE6FF5BEC5BF0E552E552E5522E
:10A58000E552E66A040EE66EEB0EE66EB90EE66E76
:10A590004EEC56F0E552E552E552E5520F0EE66EEE
:10A5A000040EE66ED950060FE66E000EDA20E66E57
:10A5B00088EC56F0E552E552E552E552DECF14F054
:10A5C000DDCF15F0E80E145C030E15580BE2200EDB
:10A5D000E66EB40EE66E200EE66E22EC56F0E55204
:10A5E000E552E552040EE66E07EC58F0E552E76ED0
:10A5F0001A0EE7CFDBFF050EE66E07EC58F0E552CA
:10A60000E76E1B0EE7CFDBFF020EDB6A030EDB6A91
:10A610001B0EDBCF14F014C015F0146A020E14C028
:10A62000DBFF030E15C0DBFF1A0EDB50146E156A3C
:10A63000D950020FE96EDACFEAFF1450EE1215502E
:10A64000ED12D950020FE96EDACFEAFF060E0F0BBA
:10A6500006E0EC52D890ED32EF32E806FAE1030E54
:10A66000DB50020B08E0D950020FE96EDACFEAFFA7
:10A67000EE52FC0EED12DECF14F0DDCF15F0D890C7
:10A6800014361536D8901436153614C0DEFF15C0B2
:10A69000DDFF1A0EDB50E76E000EDFCF14F0010E67
:10A6A000DBCF15F0E750141214C0DEFF15C0DDFF3C
:10A6B000D950060FE66E000EDA20E66E020EDBCFF2
:10A6C000E6FF030EDBCFE6FF5BEC5BF0E552E55205
:10A6D000E552E552E66A050EE66EE70EE66EB90E45
:10A6E000E66E4EEC56F0E552E552E552E5520F0E9D
:10A6F000E66E050EE66ED950060FE66E000EDA2005
:10A70000E66E88EC56F0E552E552E552E552020E4F
:10A71000DBCF14F0030EDBCF15F0E80E145C030E54
:10A7200015580BE2200EE66EB50EE66E200EE66EB4
:10A7300022EC56F0E552E552E5521C0EE15C02E2D5
:10A74000E16AE552E16EE552E7CFD9FF1200D9CFB9
:10A75000E6FFE1CFD9FF160EE126080EE66E07EC04
:10A7600058F0E552DE6EDD6ADECF18F0DDCF19F06D
:10A77000200E185E000E195A18C006F019C007F016
:10A7800060EC58F005C014F006C015F007C016F0D4
:10A7900008C017F0660E0A6E0B6EE60E0C6E3F0ECA
:10A7A0000D6E14C005F015C006F016C007F017C0F6
:10A7B00008F073EC58F0C6EC58F006C0DEFF07C096
:10A7C000DDFFD950020FE66E000EDA20E66EDECF16
:10A7D000E6FFDDCFE6FF5BEC5BF0E552E552E552CC
:10A7E000E552E66A070EE66EE00EE66EB90EE66E1C
:10A7F0004EEC56F0E552E552E552E552230EE66E78
:10A80000070EE66ED950020FE66E000EDA20E66EF5
:10A8100088EC56F0E552E552E552E5527E0EE66EC2
:10A8200085EC55F0E552430EE66E85EC55F0E552A9
:10A83000160EE15C02E2E16AE552E16EE552E7CF15
:10A84000D9FF120024EC57F020DC82DC28DC4EDD3E
:10A850007EDF2CDE6E0EE66E030EE66E050EE66EF5
:10A86000180EE66E1CEC57F0E552E552E552E55243
:04A87000ECD712000F
:0CA87400D9CFE6FFE1CFD9FF020EE126AC
:10A88000FD0EDBCF14F0DB06FE0EDBCF15F001E290
:10A89000DB061450151011E0DE6ADD6ADECF14F01D
:10A8A000DDCF15F0E30E145C0D0E155805E2DF2A1E
:10A8B000010E01E3DB2AF2D7E3D7020EE15C02E2EC
:10A8C000E16AE552E16EE552E7CFD9FF1200D9CF38
:10A8D000E6FFE1CFD9FF060EE1268D9296928D908C
:10A8E00096908D8496948A9A939A8C92DE6ADE6A08
:10A8F000DE6ADD6ADD52DD52D9CFE9FFDACFEAFF49
:10A90000640EEE5C000EEE58000EEE58000EEE588F
:10A910000AE2D9CFE9FFDACFEAFFEE2A000EEE22F3
:10A92000EE22EE22E9D78C82DE6ADE6ADE6ADD6A1A
:10A93000DD52DD52D9CFE9FFDACFEAFF640EEE5CDB
:10A94000000EEE58000EEE58000EEE580AE2D9CF77
:10A95000E9FFDACFEAFFEE2A000EEE22EE22EE2227
:10A96000E9D7AE0EE66E70D8E552DB0EE66E6CD817
:10A97000E552230EE66E68D8E552D90EE66E64D82D
:10A98000E552220EE66E60D8E552A10EE66E5CD866
:10A99000E552C80EE66E58D8E552DA0EE66E54D887
:10A9A000E552120EE66E50D8E552A80EE66E4CD86F
:10A9B000E5523F0EE66E48D8E552D50EE66E44D815
:10A9C000E552A00EE66E40D8E552810EE66E3CD808
:10A9D000E552600EE66E38D8E552D30EE66E34D8F6
:10A9E000E552E66A31D8E552A60EE66E2DD8E5525C
:10A9F000AD0EE66E29D8E5528B0EE66E25D8E552EF
:10AA0000AF0EE66E21D8E5520A0EE66EE66A32DF38
:10AA1000E552E552A40EE66E17D8E552400EE66EFA
:10AA200013D8E552020EE66E0FD8E552100EE66E10
:10AA30000BD8E552060EE15C02E2E16AE552E16EF6
:10AA4000E552E7CFD9FF1200D9CFE6FFE1CFD9FF1A
:10AA5000956AFE0EDB508C6E8D808D828A9A8D9465
:10AA60008D928D828D849568E552E7CFD9FF1200D3
:10AA7000D9CFE6FFE1CFD9FF956AFE0EDB508C6E91
:10AA80008D808D828A8A8D948D928D828D84956839
:10AA9000E552E7CFD9FF1200D9CFE6FFE1CFD9FFCA
:10AAA000020EE126B00EDF6EB80EDF5C23E2DFCFD0
:10AAB000E6FFCADFE552020EE66EC6DFE552100E73
:10AAC000E66EC2DFE552010EDB6ADB50146E156ADA
:10AAD000D890155004E6840E145C000E155808E258
:10AAE000FE0EDBCFE6FFC4DFE552010EDB2AEDD719
:10AAF000DF2ADAD7020EE15C03E200D0E16AE55218
:10AB0000E16EE552E7CFD9FF1200D9CFE6FFE1CFE2
:10AB1000D9FF200E146EFE0EDBCFE7FF1450E75E68
:10AB2000FE0EE7CFDBFFDBCFF6FFF76AF6BEF76876
:10AB3000050EF702F3CFF7FFF602F3CFF6FFF4505E
:10AB4000F726DA0EF626B40EF7220800F550E66E68
:10AB50008FDFE552FE0EDBCFF6FFF76AF6BEF76831
:10AB6000050EF702F3CFF7FFF602F3CFF6FFF4502E
:10AB7000F726DA0EF626B40EF722010EF626000EA0
:10AB8000F7220800F550E66E73DFE552FE0EDBCFCC
:10AB9000F6FFF76AF6BEF768050EF702F3CFF7FF88
:10ABA000F602F3CFF6FFF450F726DA0EF626B40ECF
:10ABB000F722020EF626000EF7220800F550E66E88
:10ABC00057DFE552FE0EDBCFF6FFF76AF6BEF768F9
:10ABD000050EF702F3CFF7FFF602F3CFF6FFF450BE
:10ABE000F726DA0EF626B40EF722030EF626000E2E
:10ABF000F7220800F550E66E3BDFE552FE0EDBCF94
:10AC0000F6FFF76AF6BEF768050EF702F3CFF7FF17
:10AC1000F602F3CFF6FFF450F726DA0EF626B40E5E
:10AC2000F722040EF626000EF7220800F550E66E15
:10AC30001FDFE552E66A1CDFE55200D0E552E7CFA0
:10AC4000D9FF1200D9CFE6FFE1CFD9FFE652FD0EC2
:10AC5000DBCFE6FFF9DEE552020E146EFC0EDBCF11
:10AC6000E7FF1450E726FC0EE7CFDBFFDB500F0BAE
:10AC7000E66EEADEE552FC0EDB380F0B0F0B100F11
:10AC8000E66EE2DEE552FE0EDBCFE6FF3EDFE5528A
:10AC900000D0E552E552E7CFD9FF1200D9CFE6FF49
:10ACA000E1CFD9FFFC0EDB50B00FE76EFC0EE7CF13
:10ACB000DBFFFB0EDBCFE6FFFC0EDBCFE6FFFD0E7E
:10ACC000DBCFF6FFFE0EDBCFF7FF0800F550E66E98
:10ACD000B9DFE552E552E552FD0EDB2ADBCFF6FF88
:10ACE000FE0E01E3DB2ADBCFF7FF0800F5500CE096
:10ACF000FD0EDBCFF6FFFE0EDBCFF7FF0800F550B1
:10AD0000E66E03DFE552E8D7E552E7CFD9FF120040
:10AD1000D9CFE6FFE1CFD9FFFC0EDB50B00FE76ED5
:10AD2000FC0EE7CFDBFFFB0EDBCFE6FFFC0EDBCF3D
:10AD3000E6FFFD0EDBCFE9FFFE0EDBCFEAFFEF50B3
:10AD4000E66E80DFE552E552E552FD0EDB2ADBCFF1
:10AD5000E9FFFE0E01E3DB2ADBCFEAFFEF500BE059
:10AD6000FD0EDBCFE9FFFE0EDBCFEAFFEF50E66E14
:10AD7000CCDEE552EAD7E552E7CFD9FF1200D9CFB2
:10AD8000E6FFE1CFD9FF050EE126030EDB6A040ED4
:10AD9000DB6A020E146EFA0EDBCFE7FF1450E726D3
:10ADA000FA0EE7CFDBFFF90EDB50B00FDF6EFB0EC4
:10ADB000DB50B00FDF5C35E2DFCFE6FF45DEE5526A
:10ADC000FA0EDB500F0BE66E3FDEE552FA0EDB3873
:10ADD0000F0B0F0B1009E66E37DEE552010EDB6A32
:10ADE000FC0EDB50F36E010EDBCFF4FFF350F45C8E
:10ADF00016E2030EDB2A040E01E3DB2AFD0EDBCF95
:10AE0000F6FFDB2AFE0EDBCFF7FF01E3DB2A0800AB
:10AE1000F550E66E2DDEE552010EDB2AE1D7DF2A82
:10AE2000C6D7050EE15C03E200D0E16AE552E16EAF
:10AE3000E552E7CFD9FF1200D9CFE6FFE1CFD9FF26
:08AE4000E552E7CFD9FF120033
:08AE4800D9CFE6FFE1CFD9FFED
:10AE5000030EE12659D8736A820E726E739C949425
:10AE60009396958C7288728A949EE66AD0D8E55241
:10AE7000E76E020EE7CFDBFF0000D950020FE96E4C
:10AE8000DACFEAFFEF50070B020801E00000140ED2
:10AE9000E66EBDD8E552E76E020EE7CFDBFF020E8D
:10AEA000DB96DB88020EDB80DB92DB94020EDBCFCD
:10AEB000E6FF140EE66E3AD8E552E552010EE66E54
:10AEC000A6D8E552DE6EDD6A0000110EE66E9FD850
:10AED000E552DE6EDD6A0000E66A110EE66E26D8E7
:10AEE000E552E5520000110EE66E91D8E552DE6E95
:10AEF000DD6A0000030EE15C02E2E16AE552E16E08
:10AF0000E552E7CFD9FF1200550EA76EAA0EA76E25
:10AF10000E01FF91090ECC6F0A0ED36F170EFB6F57
:10AF2000550EA76EAA0EA76EFF811200D9CFE6FFBD
:10AF3000E1CFD9FFE652DF6AFE0EDB50140804E0D1
:10AF4000FE0EDB50340806E1140EE66E60D8E552C2
:10AF5000E00BDF6E8B9EA49EFE0EDB50756EA4AEE2
:10AF6000FED700000000000000000000000000000C
:10AF700000000000000000000000000000000000D1
:10AF800000000000000000000000000000000000C1
:10AF900000000000000000000000000000000000B1
:10AFA00000000000000000000000000000000000A1
:10AFB0000000000000000000000000000000000091
:10AFC0000000000000000000000000000000000081
:10AFD0000000000000000000000000000000000071
:10AFE0000000A49EFE0EDB500A0805E1FD0EDB50BA
:10AFF0007F0B756E04D0FD0EDB50DF10756EA4AEB6
:10B00000FED78B8EE552E552E7CFD9FF1200D9CF9C
:10B01000E6FFE1CFD9FF8B9EA49EFE0EDB50800998
:10B02000756EA4AEFED70000000000000000000016
:10B030000000000000000000000000000000000010
:10B040000000000000000000000000000000000000
:10B0500000000000000000000000000000000000F0
:10B0600000000000000000000000000000000000E0
:10B0700000000000000000000000000000000000D0
:10B0800000000000000000000000000000000000C0
:10B0900000000000000000000000000000000000B0
:10B0A000000000000000A49E756AA4AEFED78B8E3F
:0CB0B000755000D0E552E7CFD9FF120028
:04B0BC000F9E08D00B
:10B0C0000F9E07AE05D0066C071EE86A07220F8E9A
:10B0D00007C001F006C000F0136A126A8E0E026EFD
:10B0E000036A11EF59F00F6A4DEC59F065EC59F015
:10B0F0000FB6F5EF58F00FA205D00FBAF5EF58F0E4
:10B10000FCEF58F00FBA08EF59F00FA005D00FB8B8
:10B11000F5EF58F008EF59F00FB8FCEF58F0036A5C
:10B120007F0E0824026EE86A03220D50025EE86A70
:10B13000035A1A0E106E086A126A136A006A016ACC
:10B140000A50055E0B50065A0C50075A000E085A5A
:10B1500009E70A5005260B5006220C500722000E64
:10B16000082201D0128AD8900536063607360836EE
:10B17000D8901236133600360136102EE1D707501C
:10B1800006100510D8A4128A11EF59F00F6A4DEC81
:10B1900059F00FB6D0EF58F00FA20ED00FB405D073
:10B1A0007F0E076EFF0E066E1FD0800E076E066ABA
:10B1B0001BD0076A066A18D00FB0FBD78F0E086045
:10B1C000EDD77E0E0864F5D78E0E085C05E0D890AA
:10B1D00007320632082AF8D70FA406D0066C071EDD
:10B1E000E86A072207AEE5D712007F0E086EFF0E51
:10B1F000076E066E056E12007F0E0FBEFF0E086E04
:10B2000002D07F0E086E800E076E066A056AF3D7BD
:10B210000FAE04D0800E086E076AF7D7086A076A77
:10B22000F4D70150001013101210F8E003BEF0D74D
:10B2300001BE0CD002500310EBE0D890123613364A
:10B24000003601360206D8A00306F2D70350D4E137
:10B250000228D2E012AE11D07F0E121402E113A028
:10B260000CD0132AE86A0022012207E3D8800132B9
:10B2700000321332022A0228BFE00250C9E013C094
:10B2800005F000C006F00134076E0230086E073288
:10B29000089E0FBE088EFBEF58F00736083602E313
:10B2A0000F840F7E06E10F80086A076A066A056A46
:10B2B0001200082803E0D88007321200D890073225
:10B2C00002E10F8212000F8612000C360D3602E3E7
:10B2D0000F8C0F7E06E10F880D6A0C6A0B6A0A6AF2
:10B2E00012000D2803E0D8800C321200D8900C32E6
:06B2F000EAE10F8A1200E2
:0AB2F600030EB16EB392B390B3964D
:10B30000B288B28EB290B292A494B38E12002F0E75
:10B31000926E0F01E00E486F1F0E496FC18EC19CE7
:10B32000C70EC1140809C16EF80EC1140209C16E1E
:10B33000498FC29CC29EC30EC2140809C26EC2804D
:10B340001200D9DF87EF59F0D9CFE6FFE1CFD9FF5F
:10B35000020EE126FE0EDB500F0BF36EF346F346B2
:10B36000C30EC214F310C26EFE0EDB50EA6A800FE9
:10B37000E96E000EEA22EF503F0BF36EF346F34600
:10B38000030EB114F310B16EB38EB382000000004F
:10B3900000000000000000000000000000000000AD
:10B3A000000000000000000000000000000000009D
:10B3B00000000000B392B280000000000000000016
:10B3C000000000000000000000000000000000007D
:10B3D000000000000000000000000000000000006D
:10B3E000B2909E9CC2829EACFED7C3CFDEFFC4CF7C
:10B3F000DDFFDECF14F0DDCF15F014C0F3FF15C074
:10B40000F4FF00D0020EE15C02E2E16AE552E16E77
:10B41000E552E7CFD9FF1200D9CFE6FFE1CFD9FF40
:10B42000030EE126020EDB6A040EF36E020EDBCF82
:10B43000F4FFF350F45C21E22AD8EF6A30D80CE232
:10B4400026D8EF501F0803E122D8EF6A13D01FD887
:10B45000EF2A25D8F5E30ED02CD80CE218D8EF50FF
:10B46000E10803E114D8EF6A05D011D8EF062BD814
:10B4700020D8F4E3020EDB2AD7D7030EE15C02E208
:10B48000E16AE552E16EE552E7CFD9FF1200020E04
:10B49000DB50EA6A800FE96E000EEA22120013D830
:10B4A000DECF14F0DDCF15F0200E145C030E15581E
:10B4B0001200D9CFE9FFDACFEAFF200ED880EE5490
:10B4C000030EED541200020EDBCFE6FF3DDFE55226
:0AB4D000F3CFDEFFF4CFDDFF120022
:06B4DA000000000000006C
:10B4E000004F00000007000700147F147F14242A77
:10B4F0007F2A12231308646236495522500005033F
:10B500000000001C2241000041221C0014083E08DB
:10B510001408083E08080050300000080808080811
:10B52000006060000020100804023E5149453E00C2
:10B53000427F400042615149462141454B31181438
:10B54000127F1027454545393C4A49493001710968
:10B5500005033649494936064949291E0036360051
:10B56000000056360000081422410014141414146C
:10B5700000412214080201510906324979413E7EF8
:10B580001111117E7F494949363E414141227F4197
:10B5900041221C7F494949417F090909013E41492E
:10B5A000497A7F0808087F00417F41002040413FE1
:10B5B000017F081422417F404040407F020C027FFF
:10B5C0007F0408107F3E4141413E7F090909063E44
:10B5D0004151215E7F0919294646494949310101F6
:10B5E0007F01013F4040403F1F2040201F3F403827
:10B5F000403F631408146307087008076151494508
:10B6000043007F41410002040810200041417F00B7
:10B6100004020102044040404040000102040020B6
:10B62000545454787F48444438384444442038447F
:10B6300044487F3854545418087E0901020C525271
:10B64000523E7F0804047800447D40002040443D81
:10B65000007F1028440000417F40007C04180478DB
:10B660007C0804047838444444387C1414140808D2
:10B670001414187C7C080404084854545420043FD3
:10B680004440203C4040207C1C2040201C3C40305A
:10B69000403C4428102844007F7F7F00C0C0C0C0C9
:10B6A000C0C0F8F8F8C02040FF40200402FF0204A8
:05B6B000040A110A0468
:01B6B5000094
:0AB6B600D9CFE6FFDACFE6FFFA0E67
:10B6C000E3CFD9FFFB0EE3CFDAFFFD0EE35209E72C
:10B6D0002D0EDE6EFC0EE31EE32AFD0ED8B4E3064B
:10B6E000E31EE652E652E652FD0EE124E76EFF0E3F
:10B6F000E220E46EE652F70EE3CFE6FFF70EE3CF6B
:10B70000E6FFCBEC5BF0F90EE124E96EFF0EE220E0
:10B71000EA6EBBEC5BF00AE1B8EC5BF009E1BBEC74
:10B720005BF008E1B8EC5BF007E108D0C6EC5BF039
:10B73000C1EC5BF0C6EC5BF0C1EC5BF0C6EC5BF01F
:10B74000DE6AF90EE126FF0EE222FF0EE3CFDAFFFA
:10B75000E552FF0EE3CFD9FFE552FC0EE124E96E7E
:10B76000FF0EE220EA6EEECFF3FFEFCFF4FF120000
:10B77000EF380F0B1200EF500F0B02E1EE52D8849E
:10B780001200EF380F0B300FDE6E1200EE500F0B71
:10B79000300FDE6E1200FC0EE3CFE9FFFD0EE3CFAB
:10B7A000EAFF100EE66EEE6AEE6AEF6AD890FD0EC2
:10B7B000E336FE0EE336ED36ED36EF36FF0EE306EA
:10B7C00009E0ECEC5BF0EE52ECEC5BF0EE52ECECF2
:10B7D0005BF0EDD7E56E1200030EEF24E8B6EF6ED6
:0AB7E000300EEF24E8BEEF6E000CFF
:06B7EA00000184B122D031
:10B7F00084838B809490550EA76EAA0EA76E0E01BF
:10B80000FF910E0ED16F550EA76EAA0EA76EFF8187
:10B810000F0EBA6ECF0EBA140009BA6EBB6A0F01D2
:10B82000526B800ECB6E040ECA6EA496600E776EBD
:10B830007F0E766E12000001849184938B80949029
:10B840001200000184A109D08B50010B04E1945037
:10B85000010B01E1010C8491C8DF000184A3C5DF65
:10B86000A4A63AD0A496BA50300BE842E842E84287
:10B87000E842030819E1400EBB5C10E18B90949004
:10B88000BA6ACA6A0E01D16B0F01526BCB68766A35
:10B890007768A496000184818493010CBB2ACF0EA3
:10B8A000BA140009BA6E000CBA0EE96E0F0EEA6EF9
:10B8B000EF50300BE842E842E842E842E82AE8501C
:10B8C000030BF36EF46EF346F346F346F346CF0EE6
:0AB8D000EF14F310EF6EF450000CBB
:06B8DA001E0EF66EA00E2A
:10B8E000F76E000EF86E00010900F550706F090048
:10B8F000F550716F03E1706701D03DD00900F5503C
:10B900006B6F0900F5506C6F0900F5506D6F090001
:10B910000900F550E96E0900F550EA6E09000900CA
:10B920000900F5506E6F0900F5506F6F09000900AE
:10B93000F6CF72F0F7CF73F0F8CF74F06BC0F6FF6C
:10B940006CC0F7FF6DC0F8FF00016E5302E16F534A
:10B9500007E00900F550EE6E6E07F8E26F07F9D7C1
:10B9600072C0F6FF73C0F7FF74C0F8FF00017007E4
:08B97000000E715BBFD712004D
:08B97800036A026A100EE76E7B
:10B98000D89006360736023603360B50025C0C5050
:10B99000035805E30B50025E0C50035A062AE72EAB
:04B9A000F0D71200CA
:0CB9A400C00EF36E00EE00F00E0E01D895
:10B9B0001200EA6002D0EE6AFCD7F350E960120090
:04B9C000EE6AFCD758
:0CB9C4001DEE00F02DEE00F0F86A0F9C64
:10B9D0006DEC5CF003EC50F022EC54F0FBD712005D
:10B9E00054656D703A2000593A2000583A200042C0
:08B9F0007574746F6E3A2000BB
:01FFF800AA5E
:01FFF900F710
:01FFFA001FE7
:01FFFB00FF06
:01FFFC0063A1
:01FFFD00F80B
:01FFFE008181
:01FFFF00F110
:00000001FF
