:020000040000FA
:060000002DEF64F0120078
:0600080004EF50F01200AD
:060018000CEF50F0120095
:06A000002DEF64F01200D8
:02A00600120046
:06A008002DEF56F01200DE
:02A00E0012003E
:05A0100000000000004B
:06A0180036EF56F01200C5
:02A01E0002003E
:10A0200010A000007B00000005000000E9C3000054
:08A030008500000001000000A2
:08A0380058EC55F0FB0EDBCFE4
:10A04000F3FFDB06F35000090AE0A6EC55F0FA0E28
:10A0500011EC56F0F3E1151CF1E1010E01D0000EF8
:10A0600087EF55F058EC55F03B0EE12402E3E16830
:10A07000E652E16E010EDB6A020EDB6AF90EDBCFFF
:10A08000F6FFFA0EDBCFF7FFFB0EDBCFF8FF080081
:10A09000F550DF6EDF5002E1ABEF54F0250EDF5CD0
:10A0A00002E09EEF54F0030EDB6A040EDB6A050E3D
:10A0B000DB6A060EDB6A070EDB6AC0EC54F02D0E7D
:10A0C000DF5C0CE02B0EDF5C09E0200EDF5C06E0BD
:10A0D000230EDF5C03E0300EDF5C1AE1DF50300A54
:10A0E00014E0130A0FE0030A0AE00B0A05E0060A6F
:10A0F000E4E1030EDB80E1D7030EDB82DED7030E43
:10A10000DB84DBD7030EDB86D8D7030EDB88D5D7FD
:10A110002A0EDF5C1BE1BCEC54F00AEC55F010E0B9
:10A12000030EDB8006680768130EDBCF0BF0140EFE
:10A13000DBCF0CF0AEEC5EF0040E04C0DBFF03D00E
:10A14000130EF3EC54F0C0EC54F00BD0090EDB6AA4
:10A1500061EC55F003E0D5EC55F0FAD7090EF3ECBD
:10A1600054F0030EDBB0DB982E0EDF5C1BE1C0EC7D
:10A1700054F02A0EDF5C0BE1BCEC54F00AEC55F015
:10A1800003E1130E45EC55F0C0EC54F00BD0090E72
:10A19000DB6A61EC55F003E0D5EC55F0FAD7090E17
:10A1A00045EC55F0680EDF5C07E1C0EC54F0680E3A
:10A1B000DF5C1DE1030E18D0740EDF5C17E07A0E31
:10A1C000DF5C14E0480EDF5C06E0540EDF5C03E069
:10A1D0005A0EDF5C02E1020E07D06C0EDF5C03E07A
:10A1E0006A0EDF5C04E1010E98EC55F0C9DBDF502C
:10A1F0006E0A01E17FD31E0A01E192D1200A01E13A
:10A200008FD13F0A01E149D11A0A01E146D10D0A75
:10A2100001E143D1200A01E140D13A0A01E13DD1F7
:10A22000200A01E13AD1260A01E135D10D0A01E106
:10A2300032D11A0A01E1D9D0200A4AE0300A1FE0DF
:10A24000460A0EE0250A01E083D3D950F90FE96EE2
:10A25000FF0EDA20EA6E010EEE5E000EEE5AEE5AA6
:10A26000A6EC55F0250EE66E95DB03E1151C01E129
:10A2700069D3A2EC55F001E26BD3DB2A69D3080E57
:10A28000DB6A040EDB50010806E2040EDB046AEC14
:10A2900055F0DB508BDB080EDB5009E0030EDB5082
:10A2A000010B05E172DB01E04DD3080EDB6A64DBD4
:10A2B000EFCFDFFF1AEC56F003E1151C01E142D3AA
:10A2C000A2EC55F001E3DB2A60DB01E141D33AD394
:10A2D000070EDB5002080FE1E6EC55F0030EADEC83
:10A2E00055F00E0EEECFDBFF0F0EEECFDBFF100EA4
:10A2F000EECFDBFF20D0F70EDBCF17F0F80EDBCF71
:10A3000018F0020E175E000E185AF70E17C0DBFF8A
:10A31000F80E18C0DBFF17C0E9FF18C0EAFF9DEC7C
:10A3200055F0166A0E0E14C0DBFF0F0E15C0DBFFD2
:10A33000100E16C0DBFF0E0EDBCFE6FF0F0EDBCFDD
:10A34000E6FF100EDBCFE6FF9AEC63F0E552E55234
:10A35000E552130E05C0DBFF140E06C0DBFF060E30
:10A36000DB5005E0130EE1EC55F001E26ADB05EC91
:10A3700056F002E2130E37DBC8EC55F006E0040E8F
:10A38000E1EC55F002E2050E2EDB030EDBB005D04A
:10A39000FCDA01E0D7D2080EDB6A090EDB6A0E0E8A
:10A3A000DBCFF6FF0F0EDBCFF7FF100EDBCFF8FF92
:10A3B0000800F550DF6EDF5014E00BEC56F011E2B0
:10A3C0001AEC56F003E1151C01E1BCD2BBDB01E342
:10A3D000DB2A090EDB2AD9500E0FE96E000ECBDB0B
:10A3E000E7D7D3DA01E1B4D2ADD2C6DA110EEECF9F
:10A3F000DBFF120EEDCFDBFF110EDBCFE6FF120EFF
:10A40000DBCFE6FF8CEC63F0E552E552130EF3CFA1
:10A41000DBFF140EF4CFDBFF060EDB5004E0130E5F
:10A42000D0DB01E20EDB05EC56F002E2130EDBDAC4
:10A43000AFDB05E0040EC5DB02E2050ED4DA030E45
:10A44000DBB005D0A2DA01E07DD2080EDB6A090E8E
:10A45000DB6A110EDBCFE9FF120EDBCFEAFFEFCF95
:10A46000DFFFDF5014E0D7DB12E2E4DB03E1151C71
:10A4700001E168D267DB01E3DB2A090EDB2A110E5A
:10A48000DB2ADBCFE9FF120EE8E3DB2AE6D77DDA31
:10A4900001E15ED257D2030EDB8E070EDB0410E122
:10A4A00095DB040E5ADB0A0EEECFDBFF0B0EEECF70
:10A4B000DBFF0C0EEECFDBFF0D0EEECFDBFF6CD023
:10A4C000070EDB5003082CE1030EDBAE0DD0B2DA31
:10A4D000020E76DAEFCF14F0156A166A176A14AE18
:10A4E00039D01568166835D0F70EDBCF15F0F80EA9
:10A4F000DBCF16F0020E155E000E165AF70E15C0D1
:10A50000DBFFF80E16C0DBFF15C0E9FF16C0EAFF3F
:10A51000EFCF14F00A0E14C0DBFF0B0EDB6A38D04D
:10A52000070EDB50020809E1030EDBAE04D059DB55
:10A5300016AE10D00ED055DB0DD0030EDBAE12D010
:10A5400079DA020E3DDAF9DA166A176A15AE02D028
:10A5500016681768E2DA0C0E16C0DBFF0D0E17C086
:10A56000DBFF1AD0F70EDBCF16F0F80EDBCF17F0BB
:10A57000020E165E000E175AF70E16C0DBFFF80E1D
:10A5800017C0DBFF16C0E9FF17C0EAFFD6DAC5DA4D
:10A590000C0EDB6A0D0EDB6A060EDB5005E1010EC8
:10A5A000F36E050EF3CFDBFF150EDB6A160EDB6ACA
:10A5B000D950370F146E000EDA20156E390E14C004
:10A5C000DBFF3A0E15C0DBFF380EDB6A080EDB6AD4
:10A5D0000A0EAEDADF50780A12E0200A10E0280AEC
:10A5E0000CE0200A0AE03F0A06E00D0A02E0200A19
:10A5F00008E1020E05D0080E03D0080EDF26100E6B
:10A6000097DA030EDBBE02D0DB92DB94DB50800BCB
:10A6100024E08ADAD890030EEB50000A08E6000E18
:10A62000EE5C000EEE58000EEE58000EEE5815E2ED
:10A6300013DA09680A680B680C6854EC63F00A0EB8
:10A6400000C0DBFF0B0E01C0DBFF0C0E02C0DBFF06
:10A650000D0E03C0DBFF2D0E08D0030EDBA202D0CF
:10A660002B0E03D0DBA408D0200EF36E170EF3CF11
:10A67000DBFF150EDB2A02D0170EDB6A050EDB505E
:10A6800003E1B7D901E189D0920E146EC80E156EA0
:10A69000000E166E070EDBCF17F0186A196A1A6AD9
:10A6A00017C009F018C00AF019C00BF01AC00CF05E
:10A6B000D3D9BFEC63F014500024F36E1550012081
:10A6C000F46E16500220F86EF4CFF7FFF3CFF6FFCA
:10A6D0000800090EF5CFDBFF580EDF5C0FE1610EBD
:10A6E000F36E090E7BD90AE3200E146E090EDBCF40
:10A6F000E7FF1450E75E090EE7CFDBFF070EDBCF65
:10A7000014F0156A166A176A0FDA14C009F015C03A
:10A710000AF016C00BF017C00CF0EECF04F0EECF2D
:10A7200005F0EECF06F0EFCF07F0BFEC63F007C007
:10A73000EDFF06C0EDFF05C0EDFF04C0EFFF390ED1
:10A74000DBCFE9FFDB063A0EDBCFEAFF01E2DB06F7
:10A75000090EDBCFEFFF150EDB2A4BD995E1030E77
:10A76000DBA61DD06F0EDF5C06E1C1D918E3150E24
:10A77000DB285BDA14D0780EDF5C09E0580EDF5C72
:10A7800006E0620EDF5C03E0420EDF5C08E1020ED1
:10A79000F36E160EF3CFDBFF02D0150EDB6A030E4D
:10A7A000DB50100B0EE0040EDBCF14F0050EDB5077
:10A7B000D880145406E2060EDB5003E1040EDB5091
:10A7C00034DA95D90AE2050EDBCFE7FF150EDB5030
:10A7D000E75E050EE7CFDBFF02D0050EDB6A040E55
:10A7E000DBCF14F0160E45D9D880145414E2160E9F
:10A7F000DBCFE6FF150EDBCFE6FF040EDBCFE6FF77
:10A80000050EDB50E552E75CE552D880E754E5528F
:10A81000D880E7545FD9030EDB50010B0BE1080E23
:10A82000DB5008E0B2D801E08DD0080EDB50BED876
:10A83000080EDB6A170EDB5007E088D9170EF1D936
:10A8400003E1151C01E17ED0160EDB5016E07ED927
:10A85000300EE66E9FD802E1151C74E077D9DFCF89
:10A86000E6FF12EC63F0E552E552E552F4CF15F045
:10A870000001F31C02E1151C65E0050EDBCF14F0AE
:10A88000160EDB50D880145409E2050EDBCFE7FF2B
:10A89000160EDB50E75E050EE7CFDBFF300EE66EEF
:10A8A000050ECBD94FE1390EDB2ADBCFE9FF3A0E9B
:10A8B00001E3DB2ADBCFEAFF090EEFCFDBFFDB5042
:10A8C0000EE044D9090EADD902E1151C3BE0390E6A
:10A8D000DB2ADBCFE9FF3A0EEDE3DB2AEBD755D8D5
:10A8E00031E1160EDBCFE6FF080EC3D8E552E724B0
:10A8F0005DD82ED0070EDB50030A1CE0010A14E0DD
:10A90000030A07E07BD9DBCFEEFF020EDBCFEDFFC2
:10A910001FD0F5D8196A17AE02D0186819682CD85C
:10A92000BCD819C0EEFF14D0EAD817BE186824D8D6
:10A93000B4D80ED063D9DBCFEFFF0AD07BD905E1C5
:10A94000151C03E1F368F46810D0FCD801E3DB2A9E
:10A9500079D947EF50F0010EDBCF14F0020EDBCFB8
:10A9600015F014C0F3FF15C0F4FF3B0EE15C02E2EA
:10A97000E16AE552E16ECBD029D9020EADEF55F078
:10A9800061D90800F550DF6E1200200EE66E080E49
:10A990001DEF56F012EC63F0E552E552E552F3CFAD
:10A9A00014F0F4CF15F00001F31C1200146E156AB8
:10A9B000D950010F4DD91450EE261550ED2212003A
:10A9C000185E000E195AF70E18C0DBFFF80E19C0FA
:10A9D000DBFF18C0E9FF19C0EAFF1200DBCFF4FF6C
:10A9E000F350F45C1200DB50E76E040EE7CFDBFFA0
:10A9F00012000A0EDBCF14F00B0EDBCF15F00C0E9D
:10AA0000DBCF16F00D0EDBCF17F01450151016101B
:10AA100017101200130EEECFDBFF140EEDCFDBFF8D
:10AA2000130EDBCF14F0140EDBCF15F00001800EF7
:10AA300015141200F70EDBCF18F0F80EDBCF19F06B
:10AA40001200050EDB50E66ED950130F01D9E55206
:10AA5000E750EE6EED6A12000A0EDBCF04F00B0E2B
:10AA6000DBCF05F00C0EDBCF06F00D0EDBCF07F0D1
:10AA70001200DBCFE6FF150EDBCFE6FF050EDB5045
:10AA8000E552E724E552E7241200DB50CED8010E50
:10AA9000F36E060EF3CFDBFF1200EE50EFCFEAFFAE
:10AAA000E96E16C0EEFF17C0EEFF18C0EEFF1200F1
:10AAB000D9CFE6FFDACFE6FFE1CFD9FFE2CFDAFF69
:10AAC0001200DFCFE6FFE66AF9EC63F0E552E552EB
:10AAD000F3501200E76E080EE7CFDBFF1200EECF57
:10AAE00014F0EECF15F0EFCF16F0176A1200050E36
:10AAF000DBCF14F0150EDB50D88014541200010E79
:10AB0000DBCF16F0020EDBCF17F0186A1200E55209
:10AB1000E5CFDAFFE7CFD9FF12000A0E14C0DBFF42
:10AB20000B0E15C0DBFF1200D9500A0F28EF56F0AC
:10AB3000F36E070EF3CFDBFF1200EECF14F0EFCF72
:10AB400015F01200010EDB2A020E1200FC0EDBCF04
:10AB5000E6FFFD0EDBCFE6FF1200145E000E155A75
:10AB6000F70E14C0DBFFF80E15C0DBFF14C0E9FFC1
:10AB700015C0EAFF1200DA20EA6EEF2AEECFF6FFE8
:10AB8000000EEF22EECFF7FFEF22EECFF8FF12001C
:10AB9000040EDBCFE6FF130EDB50E552E75C9ADFD5
:10ABA000DB5004DF060EDB501200090EDB500A0DED
:10ABB000F350DF24D00FE76E090EE7CFDBFFC0EFC5
:10ABC00054F0DB50F36E050EEEEF54F0F70EDBCFD2
:10ABD00014F0F80EDBCF15F01200DFCFE6FFCAEF5E
:10ABE00054F028DF030EECDE6FEF55F01CEC50F054
:10ABF000E552E552E552E55200091200BDDEEE5085
:10AC0000EFCFEAFFE96E010E1200130EDB50F36E78
:10AC1000040EEEEF54F0040EDB50F36E090EEEEF6F
:10AC200054F0DBCFE6FFCAEF54F0E76E050EE7CF36
:10AC3000DBFF12008BDFEDEF55F0DBCFE6FF86DFA9
:10AC4000F6EF55F0D950F90FE96EFF0EBBEF55F056
:0AAC5000E96E000EDA20EA6E120031
:06AC5A00DACFE4FFE2CFB7
:10AC6000DAFFE652E552E5CFDAFF1100D8CFE4FF74
:10AC7000E0CFE4FFE46EDACFE4FFE2CFDAFFE652A2
:10AC8000E552E5CFDAFFE550E5CFE0FFE5CFD8FFAD
:10AC900010003BEC60F0A6EC60F0DBEC5EF0D9EC71
:10ACA0005AF0E66ABEEC5BF0E552120021EC62F06D
:10ACB000000901E1FBD70F014869496949EF56F0E6
:10ACC000D9CFE6FFE1CFD9FF160EE126D9CFE9FFB4
:10ACD000DACFEAFF420EEE6E750EEE6E740EEE6E79
:10ACE000EE6E6F0EEE6E6E0EEE6E3A0EEE6EEE6A5B
:10ACF000F40EEE6EEE6EEE6EEE6EEE6EEE6EEE6ECE
:10AD0000EE6EEE6EEE6EEE6EEE6E7B0EF36E140E6B
:10AD1000F3CFDBFF7A0EF36E150EF3CFDBFF81B0BE
:10AD200051D0D9CFE6FFDACFE6FF360E146EC80E4B
:10AD3000156E166A14C0E6FF15C0E6FF16C0E6FFE2
:10AD4000840EE66E000EE66E6DEC62F0176E070E76
:10AD5000E15E1750E66A020EE66E840EE66E000EA5
:10AD6000E66EFAEC5CF0E552E552E552E5522D0E46
:10AD7000E66EB20EE66E150EDBCFE6FF94EC5CF0ED
:10AD8000E552E552E55200017CC014F07DC015F09B
:10AD90007EC016F07FC017F07C2B000E7D237E2333
:10ADA0007F23D8800A0E1454000E1554000E16543A
:10ADB000000E175406E27C6B7D6B7E6B7F6B010E81
:10ADC0007B6F43D0D9CFE6FFDACFE6FF360E146EA5
:10ADD000C80E156E166A14C0E6FF15C0E6FF16C051
:10ADE000E6FF840EE66E000EE66E6DEC62F0176E06
:10ADF000070EE15E1750E66A020EE66E840EE66EFE
:10AE0000000EE66EFAEC5CF0E552E552E552E552D2
:10AE10002D0EE66EB20EE66E140EDBCFE6FF94EC5E
:10AE20005CF0E552E552E55200017B050EE17C51F4
:10AE30007D117E117F1104E17B6B010E08D005D0DE
:10AE40007C07000E7D5B7E5B7F5B000E00D0146E86
:10AE5000160EE15C02E2E16AE552E16E1450E55241
:10AE6000E7CFD9FF1200D9CFE6FFE1CFD9FF200EFF
:10AE7000E126C30EC2141009C26EC282C2B2FED74E
:10AE8000C3CFE6FFC4CFE6FF330E146EC80E156EB7
:10AE9000166A14C0E6FF15C0E6FF16C0E6FFD950DB
:10AEA000020FE66E000EDA20E66E6DEC62F0176EB1
:10AEB000070EE15E1750E66AE66AD950020FE66EA9
:10AEC000000EDA20E66EFAEC5CF0E552E552E5524F
:10AED000E552E80EC35C030EC4580BE2120EE66E98
:10AEE000B00EE66E200EE66E94EC5CF0E552E55294
:10AEF000E552640EC35C000EC4580BE20C0EE66E05
:10AF0000B00EE66E200EE66E94EC5CF0E552E55273
:10AF1000E5520A0EC35C000EC4580BE2060EE66E44
:10AF2000B00EE66E200EE66E94EC5CF0E552E55253
:10AF3000E5521E0EE66EB00EE66E5B0EE66E94EC0B
:10AF40005CF0E552E552E552500EE66EB00EE66E4C
:10AF50005D0EE66E94EC5CF0E552E552E552230E90
:10AF6000DE6EDD6ADECF14F0DDCF15F0153404E2BD
:10AF700014504B08000E155410E3DFCFE6FFB00E5F
:10AF8000E66E2D0EE66E94EC5CF0E552E552E5526D
:10AF9000DF2A010E01E3DB2AE5D7C350C4100CE120
:10AFA000230EE66EF00EE66E4F0EE66E94EC5CF04D
:10AFB000E552E552E55226D0C350C41023E0C3CF7A
:10AFC00014F0C4CF15F0320E0B6E0C6A14C006F0EC
:10AFD00015C007F0E3EC63F006C014F007C015F0ED
:10AFE000010ED89014361536E806FBE1230E142422
:10AFF000E66EF00EE66E4F0EE66E94EC5CF0E552F7
:10B00000E552E552200EE15C02E2E16AE552E16EB2
:10B01000E552E7CFD9FF1200D9CFE6FFE1CFD9FF44
:10B02000080EE126E66A3EEC60F0E552020EF3CF30
:10B03000DBFF030EF4CFDBFFE66E3EEC60F0E55283
:10B04000F3CFDEFFF4CFDDFF010EE66E3EEC60F0E5
:10B05000E552040EF3CFDBFF050EF4CFDBFF020E4B
:10B06000E66E3EEC60F0E552060EF3CFDBFF070E16
:10B07000F4CFDBFF130EC26E6E0EE66EB20EE66EFE
:10B08000790EE66E94EC5CF0E552E552E552D9CFCC
:10B09000E9FFDACFEAFF200ED880EE54030EED541C
:10B0A0000CE2640EE66EB20EE66E6C0EE66E94EC8A
:10B0B0005CF0E552E552E5520BD0640EE66EB20E3E
:10B0C000E66E4C0EE66E94EC5CF0E552E552E5520D
:10B0D000D950020FE96EDACFEAFF200ED880EE5485
:10B0E000030EED540CE2780EE66E030EE66E720E61
:10B0F000E66E94EC5CF0E552E552E5520BD0780E2A
:10B10000E66EB20EE66E520EE66E94EC5CF0E55220
:10B11000E552E552D950040FE96EDACFEAFFC50EC9
:10B12000D880EE54030EED540BE26E0EE66EB10EB7
:10B13000E66E7D0EE66E94EC5CF0E552E552E5526B
:10B14000040EDBCF14F0050EDBCF15F0C00E145C3F
:10B15000030E15580BE26E0EE66EB10EE66E550E3E
:10B16000E66E94EC5CF0E552E552E552D950060FDC
:10B17000E96EDACFEAFFD40ED880EE54030EED5418
:10B180000BE26E0EE66EB30EE66E7C0EE66E94EC8F
:10B190005CF0E552E552E552060EDBCF14F0070EE7
:10B1A000DBCF15F0CF0E145C030E15580BE26E0EBC
:10B1B000E66EB30EE66E440EE66E94EC5CF0E5527D
:10B1C000E552E552080EE15C02E2E16AE552E16E09
:10B1D000E552E7CFD9FF1200D9CFE6FFE1CFD9FF83
:10B1E0001F0EE126080EE66EBEEC5FF0E552DF6E44
:10B1F000200EDF5C186E18C007F09DEC5DF005C0F6
:10B2000014F006C015F007C016F008C017F0660E5F
:10B210000A6E0B6EE60E0C6E3F0E0D6E14C005F03E
:10B2200015C006F016C007F017C008F0AEEC5DF0D0
:10B2300001EC5EF00750DF6EDFCFE6FFE66A2A0E14
:10B24000146EC80E156E166A14C0E6FF15C0E6FF30
:10B2500016C0E6FFD950010FE66E000EDA20E66E4A
:10B260006DEC62F0176E070EE15E1750E66A070E8E
:10B27000E66ED950010FE66E000EDA20E66EFAECAB
:10B280005CF0E552E552E552E5527E0EE66EF7ECD3
:10B290005BF0E552430EE66EF7EC5BF0E5521F0EF5
:10B2A000E15C02E2E16AE552E16EE552E7CFD9FFE7
:10B2B0001200D9CFE6FFE1CFD9FF200EE126DBEC6B
:10B2C0005EF0F4DCD0DDFCDCA7DE86DF6E0EE66E21
:10B2D000030EE66E050EE66E180EE66E8EEC5DF061
:10B2E000E552E552E552E552020EE66EBEEC5FF025
:10B2F000E552E76E1E0EE7CFDBFF030EE66EBEECF7
:10B300005FF0E552E76E1F0EE7CFDBFF040EDB6A4E
:10B31000050EDB6A1F0EDBCF14F014C015F0146AA3
:10B32000040E14C0DBFF050E15C0DBFFD950040F5F
:10B33000E96EDACFEAFF000ED880EE54000EED542D
:10B3400014E2040EDBCF14F0050EDBCF15F00A0E6D
:10B350000B6E0C6A14C006F015C007F0E3EC63F046
:10B3600002C014F003C015F017D0040EDBCF14F0A8
:10B37000050EDBCF15F0146C151E000E15220A0EFB
:10B380000B6E0C6A14C006F015C007F0E3EC63F016
:10B3900002C014F003C015F014C0E6FF15C0E6FFAC
:10B3A000040EDBCF16F0050EDBCF17F00A0E0B6E86
:10B3B0000C6A16C006F017C007F0E3EC63F006C095
:10B3C00016F007C017F016C0E6FF17C0E6FF200E04
:10B3D000186EC80E196E1A6A18C0E6FF19C0E6FF8B
:10B3E0001AC0E6FFD9500A0FE66E000EDA20E66EAC
:10B3F0006DEC62F01B6E090EE15E1B50E66A040EF6
:10B40000E66ED9500A0FE66E000EDA20E66EFAEC10
:10B410005CF0E552E552E552E552040EE66EBEECF4
:10B420005FF0E552E76E1E0EE7CFDBFF050EE66E1E
:10B43000BEEC5FF0E552E76E1F0EE7CFDBFFDBCF20
:10B4400014F014C015F0146A060E14C0DBFF070ECA
:10B4500015C0DBFFD950060FE96EDACFEAFF000E08
:10B46000D880EE54000EED5414E2060EDBCF14F03B
:10B47000070EDBCF15F00A0E0B6E0C6A14C006F037
:10B4800015C007F0E3EC63F002C014F003C015F040
:10B4900017D0060EDBCF14F0070EDBCF15F0146CBF
:10B4A000151E000E15220A0E0B6E0C6A14C006F053
:10B4B00015C007F0E3EC63F002C014F003C015F010
:10B4C00014C0E6FF15C0E6FF060EDBCF16F0070E30
:10B4D000DBCF17F00A0E0B6E0C6A16C006F017C011
:10B4E00007F0E3EC63F006C016F007C017F016C0D3
:10B4F000E6FF17C0E6FF160E186EC80E196E1A6A20
:10B5000018C0E6FF19C0E6FF1AC0E6FFD9500A0FBF
:10B51000E66E000EDA20E66E6DEC62F01B6E090E30
:10B52000E15E1B50E66A050EE66ED9500A0FE66E24
:10B53000000EDA20E66EFAEC5CF0E552E552E552D8
:10B54000E552C0D6200EE15C02E2E16AE552E16E0E
:08B55000E552E7CFD9FF12001C
:08B55800D9CFE6FFE1CFD9FFD6
:10B56000020EE126FD0EDBCF14F0DB06FE0EDBCF74
:10B5700015F001E2DB061450151011E0DE6ADD6AF9
:10B58000DECF14F0DDCF15F0E30E145C0D0E155870
:10B5900005E2DF2A010E01E3DB2AF2D7E3D7020E30
:10B5A000E15C02E2E16AE552E16EE552E7CFD9FFE4
:10B5B0001200D9CFE6FFE1CFD9FF060EE1268D922A
:10B5C00096928D9096908D8496948A9A939A8C9266
:10B5D000DE6ADE6ADE6ADD6ADD52DD52D9CFE9FF5E
:10B5E000DACFEAFF640EEE5C000EEE58000EEE5865
:10B5F000000EEE580AE2D9CFE9FFDACFEAFFEE2AD1
:10B60000000EEE22EE22EE22E9D78C82DE6ADE6A9E
:10B61000DE6ADD6ADD52DD52D9CFE9FFDACFEAFF1B
:10B62000640EEE5C000EEE58000EEE58000EEE5862
:10B630000AE2D9CFE9FFDACFEAFFEE2A000EEE22C6
:10B64000EE22EE22E9D7AE0EE66E70D8E552DB0EA2
:10B65000E66E6CD8E552230EE66E68D8E552D90E38
:10B66000E66E64D8E552220EE66E60D8E552A10E71
:10B67000E66E5CD8E552C80EE66E58D8E552DA0E92
:10B68000E66E54D8E552120EE66E50D8E552A80E7A
:10B69000E66E4CD8E5523F0EE66E48D8E552D50E20
:10B6A000E66E44D8E552A00EE66E40D8E552810E13
:10B6B000E66E3CD8E552600EE66E38D8E552D30E01
:10B6C000E66E34D8E552E66A31D8E552A60EE66E4B
:10B6D0002DD8E552AD0EE66E29D8E5528B0EE66EFA
:10B6E00025D8E552AF0EE66E21D8E5520A0EE66E79
:10B6F000E66A32DFE552E552A40EE66E17D8E5524F
:10B70000400EE66E13D8E552020EE66E0FD8E552F3
:10B71000100EE66E0BD8E552060EE15C02E2E16A1D
:10B72000E552E16EE552E7CFD9FF1200D9CFE6FF2F
:10B73000E1CFD9FF956AFE0EDB508C6E8D808D8235
:10B740008A9A8D948D928D828D849568E552E7CF8B
:10B75000D9FF1200D9CFE6FFE1CFD9FF956AFE0EDF
:10B76000DB508C6E8D808D828A8A8D948D928D8235
:10B770008D849568E552E7CFD9FF1200D9CFE6FF57
:10B78000E1CFD9FF020EE126B00EDF6EB80EDF5C0E
:10B7900023E2DFCFE6FFCADFE552020EE66EC6DF28
:10B7A000E552100EE66EC2DFE552010EDB6ADB5099
:10B7B000146E156AD890155004E6840E145C000EC1
:10B7C000155808E2FE0EDBCFE6FFC4DFE552010E9E
:10B7D000DB2AEDD7DF2ADAD7020EE15C03E200D0E4
:10B7E000E16AE552E16EE552E7CFD9FF1200D9CF09
:10B7F000E6FFE1CFD9FF200E146EFE0EDBCFE7FF90
:10B800001450E75EFE0EE7CFDBFFDBCFF6FFF76AF3
:10B81000F6BEF768050EF702F3CFF7FFF602F3CF97
:10B82000F6FFF450F7260E0EF626C20EF722080099
:10B83000F550E66E8FDFE552FE0EDBCFF6FFF76ABE
:10B84000F6BEF768050EF702F3CFF7FFF602F3CF67
:10B85000F6FFF450F7260E0EF626C20EF722010E62
:10B86000F626000EF7220800F550E66E73DFE5526B
:10B87000FE0EDBCFF6FFF76AF6BEF768050EF7029D
:10B88000F3CFF7FFF602F3CFF6FFF450F7260E0ED4
:10B89000F626C20EF722020EF626000EF722080048
:10B8A000F550E66E57DFE552FE0EDBCFF6FFF76A86
:10B8B000F6BEF768050EF702F3CFF7FFF602F3CFF7
:10B8C000F6FFF450F7260E0EF626C20EF722030EF0
:10B8D000F626000EF7220800F550E66E3BDFE55233
:10B8E000FE0EDBCFF6FFF76AF6BEF768050EF7022D
:10B8F000F3CFF7FFF602F3CFF6FFF450F7260E0E64
:10B90000F626C20EF722040EF626000EF7220800D5
:10B91000F550E66E1FDFE552E66A1CDFE55200D007
:10B92000E552E7CFD9FF1200D9CFE6FFE1CFD9FF2B
:10B93000E652FD0EDBCFE6FFF9DEE552020E146E95
:10B94000FC0EDBCFE7FF1450E726FC0EE7CFDBFF52
:10B95000DB500F0BE66EEADEE552FC0EDB380F0B18
:10B960000F0B100FE66EE2DEE552FE0EDBCFE6FFB8
:10B970003EDFE55200D0E552E552E7CFD9FF120095
:10B98000D9CFE6FFE1CFD9FFFC0EDB50B00FE76E59
:10B99000FC0EE7CFDBFFFB0EDBCFE6FFFC0EDBCFC1
:10B9A000E6FFFD0EDBCFF6FFFE0EDBCFF7FF080054
:10B9B000F550E66EB9DFE552E552E552FD0EDB2AA1
:10B9C000DBCFF6FFFE0E01E3DB2ADBCFF7FF08003B
:10B9D000F5500CE0FD0EDBCFF6FFFE0EDBCFF7FFE0
:10B9E0000800F550E66E03DFE552E8D7E552E7CFF1
:10B9F000D9FF1200D9CFE6FFE1CFD9FFFC0EDB5013
:10BA0000B00FE76EFC0EE7CFDBFFFB0EDBCFE6FFF0
:10BA1000FC0EDBCFE6FFFD0EDBCFE9FFFE0EDBCF3A
:10BA2000EAFFEF50E66E80DFE552E552E552FD0E8B
:10BA3000DB2ADBCFE9FFFE0E01E3DB2ADBCFEAFFE7
:10BA4000EF500BE0FD0EDBCFE9FFFE0EDBCFEAFF90
:10BA5000EF50E66ECCDEE552EAD7E552E7CFD9FFEC
:10BA60001200D9CFE6FFE1CFD9FF050EE126030E84
:10BA7000DB6A040EDB6A020E146EFA0EDBCFE7FF00
:10BA80001450E726FA0EE7CFDBFFF90EDB50B00FBC
:10BA9000DF6EFB0EDB50B00FDF5C35E2DFCFE6FF81
:10BAA00045DEE552FA0EDB500F0BE66E3FDEE55247
:10BAB000FA0EDB380F0B0F0B1009E66E37DEE5527E
:10BAC000010EDB6AFC0EDB50F36E010EDBCFF4FFE0
:10BAD000F350F45C16E2030EDB2A040E01E3DB2ACA
:10BAE000FD0EDBCFF6FFDB2AFE0EDBCFF7FF01E317
:10BAF000DB2A0800F550E66E2DDEE552010EDB2A4A
:10BB0000E1D7DF2AC6D7050EE15C03E200D0E16A87
:10BB1000E552E16EE552E7CFD9FF1200D9CFE6FF3B
:10BB2000E1CFD9FF020EE126E15C02E2E16AE552D3
:0ABB3000E16EE552E7CFD9FF1200E5
:06BB3A000F9E05D00F9ED6
:10BB400007AE02D0076C0F8E07C001F0006A136ABF
:10BB5000126A860E026E036A44EF5EF00F6A80EC92
:10BB60005EF098EC5EF00FB628EF5EF00FA205D005
:10BB70000FBA28EF5EF02FEF5EF00FBA3BEF5EF0EA
:10BB80000FA005D00FB828EF5EF03BEF5EF00FB8C6
:10BB90002FEF5EF0036A7F0E0824026EE86A03222C
:10BBA0000D50025EE86A035A1A0E106E086A126A95
:10BBB000136A006A016A0A50055E0B50065A0C505F
:10BBC000075A000E085A09E70A5005260B500622AC
:10BBD0000C500722000E082201D0128AD890053698
:10BBE000063607360836D890123613360036013638
:10BBF000102EE1D7075006100510D8A4128A44EF82
:10BC00005EF00F6A80EC5EF00FB60BEF5EF00FA2F5
:10BC10000AD00FB403D07F0E076E19D0800E076EC6
:10BC200016D0076A14D00FB0FCD7870E0860F1D782
:10BC30007E0E0864F6D7860E085C04E0D8900732C2
:10BC4000082AF9D70FA403D0076C07AEEAD7120071
:10BC50007F0E086EFF0E076E066E056E12007F0ED9
:10BC60000FBEFF0E086E02D07F0E086E800E076EAC
:10BC7000066A056AF3D70FAE04D0800E086E076A15
:10BC8000F7D7086A076AF4D7015000101310121092
:10BC9000F8E003BEF0D701BE0CD002500310EBE079
:10BCA000D89012361336003601360206D8A00306A5
:10BCB000F2D70350D4E10228D2E012AE11D07F0EA9
:10BCC000121402E113A00CD0132AE86A0022012208
:10BCD00007E3D880013200321332022A0228BFE083
:10BCE0000250C9E013C005F000C006F00134076E31
:10BCF0000230086E0732089E0FBE088E2EEF5EF0EF
:10BD00000736083602E30F840F7E06E10F80086ACB
:10BD1000076A066A056A1200082803E0D88007321D
:10BD20001200D890073202E10F8212000F86120033
:10BD30000C360D3602E30F8C0F7E06E10F880D6A7C
:10BD40000C6A0B6A0A6A12000D2803E0D8800C32D4
:10BD50001200D8900C32EAE10F8A120007C013F0EB
:10BD600006C012F006500B02F4CF05F0F3CF04F03A
:10BD700007500C02F4CF07F0F3CF06F00B02F3509C
:10BD80000526F4500622E86A072212500C02F350EE
:10BD90000526F4500622E86A07220CAED4EF5EF0C6
:10BDA0001250065E1350075A13AE000C0B50065E7D
:06BDB0000C50075A000CC4
:0ABDB600D9CFE6FFE1CFD9FF030E5D
:10BDC000E12659D8736A820E726E739C949493968E
:10BDD000958C7288728A949EE66AD0D8E552E76E96
:10BDE000020EE7CFDBFF0000D950020FE96EDACF79
:10BDF000EAFFEF50070B020801E00000140EE66EA8
:10BE0000BDD8E552E76E020EE7CFDBFF020EDB96F0
:10BE1000DB88020EDB80DB92DB94020EDBCFE6FFD9
:10BE2000140EE66E3AD8E552E552010EE66EA6D83B
:10BE3000E552DE6EDD6A0000110EE66E9FD8E55217
:10BE4000DE6EDD6A0000E66A110EE66E26D8E55267
:10BE5000E5520000110EE66E91D8E552DE6EDD6A05
:10BE60000000030EE15C02E2E16AE552E16EE55298
:10BE7000E7CFD9FF1200550EA76EAA0EA76E0E01CE
:10BE8000FF91090ECC6F0A0ED36F170EFB6F550E84
:10BE9000A76EAA0EA76EFF811200D9CFE6FFE1CFF1
:10BEA000D9FFE652DF6AFE0EDB50140804E0FE0EF6
:10BEB000DB50340806E1140EE66E60D8E552E00B64
:10BEC000DF6E8B9EA49EFE0EDB50756EA4AEFED779
:10BED0000000000000000000000000000000000062
:10BEE0000000000000000000000000000000000052
:10BEF0000000000000000000000000000000000042
:10BF00000000000000000000000000000000000031
:10BF10000000000000000000000000000000000021
:10BF20000000000000000000000000000000000011
:10BF30000000000000000000000000000000000001
:10BF400000000000000000000000000000000000F1
:10BF5000A49EFE0EDB500A0805E1FD0EDB507F0BB0
:10BF6000756E04D0FD0EDB50DF10756EA4AEFED7EB
:10BF70008B8EE552E552E7CFD9FF1200D9CFE6FF0D
:10BF8000E1CFD9FF8B9EA49EFE0EDB508009756E1B
:10BF9000A4AEFED70000000000000000000000007A
:10BFA0000000000000000000000000000000000091
:10BFB0000000000000000000000000000000000081
:10BFC0000000000000000000000000000000000071
:10BFD0000000000000000000000000000000000061
:10BFE0000000000000000000000000000000000051
:10BFF0000000000000000000000000000000000041
:10C000000000000000000000000000000000000030
:10C0100000000000A49E756AA4AEFED78B8E7550FA
:0AC0200000D0E552E7CFD9FF12006F
:06C02A00030EB16EB3929B
:10C03000B390B396B288B28EB290B292A494B38EFB
:10C0400012002F0E926E0F01E00E486F1F0E496F07
:10C05000C18EC19CC70EC1140809C16EF80EC1146F
:10C060000209C16E498FC29CC29EC30EC214080948
:10C07000C26EC2801200D9DF21EF60F0D9CFE6FF97
:10C08000E1CFD9FF020EE126FE0EDB500F0BF36E5F
:10C09000F346F346C30EC214F310C26EFE0EDB501D
:10C0A000EA6A800FE96E000EEA22EF503F0BF36E52
:10C0B000F346F346030EB114F310B16EB38EB382A0
:10C0C0000000000000000000000000000000000070
:10C0D0000000000000000000000000000000000060
:10C0E0000000000000000000B392B28000000000D9
:10C0F0000000000000000000000000000000000040
:10C10000000000000000000000000000000000002F
:10C1100000000000B2909E9CC2829EACFED7C3CFAE
:10C12000DEFFC4CFDDFFDECF14F0DDCF15F014C08D
:10C13000F3FF15C0F4FF00D0020EE15C02E2E16AF9
:10C14000E552E16EE552E7CFD9FF1200D9CFE6FF05
:10C15000E1CFD9FF030EE126020EDB6A040EF36E77
:10C16000020EDBCFF4FFF350F45C21E22AD8EF6A31
:10C1700030D80CE226D8EF501F0803E122D8EF6A2E
:10C1800013D01FD8EF2A25D8F5E30ED02CD80CE217
:10C1900018D8EF50E10803E114D8EF6A05D011D8A0
:10C1A000EF062BD820D8F4E3020EDB2AD7D7030EF4
:10C1B000E15C02E2E16AE552E16EE552E7CFD9FFC8
:10C1C0001200020EDB50EA6A800FE96E000EEA22CE
:10C1D000120013D8DECF14F0DDCF15F0200E145C62
:10C1E000030E15581200D9CFE9FFDACFEAFF200E6F
:10C1F000D880EE54030EED541200020EDBCFE6FFA2
:0EC200003DDFE552F3CFDEFFF4CFDDFF12008D
:02C20E0000002E
:10C2100000000000004F00000007000700147F141A
:10C220007F14242A7F2A1223130864623649552278
:10C23000500005030000001C2241000041221C00A8
:10C2400014083E081408083E080800503000000892
:10C2500008080808006060000020100804023E5131
:10C2600049453E00427F40004261514946214145D7
:10C270004B311814127F1027454545393C4A49492E
:10C280003001710905033649494936064949291ED5
:10C290000036360000005636000008142241001413
:10C2A00014141414004122140802015109063249E1
:10C2B00079413E7E1111117E7F494949363E414107
:10C2C00041227F4141221C7F494949417F09090997
:10C2D000013E4149497A7F0808087F00417F4100BB
:10C2E0002040413F017F081422417F404040407F71
:10C2F000020C027F7F0408107F3E4141413E7F09CE
:10C300000909063E4151215E7F09192946464949DE
:10C31000493101017F01013F4040403F1F20402043
:10C320001F3F4038403F6314081463070870080734
:10C330006151494543007F4141000204081020003B
:10C3400041417F000402010204404040404000019E
:10C3500002040020545454787F48444438384444FC
:10C360004420384444487F3854545418087E090106
:10C37000020C5252523E7F0804047800447D400073
:10C380002040443D007F1028440000417F40007C55
:10C39000041804787C0804047838444444387C1435
:10C3A000141408081414187C7C0804040848545415
:10C3B0005420043F4440203C4040207C1C2040202E
:10C3C0001C3C4030403C4428102844007F7F7F00C4
:10C3D000C0C0C0C0C0C0F8F8F8C02040FF40200472
:09C3E00002FF0204040A110A0420
:01C3E9000053
:06C3EA00000185B122D024
:10C3F00085838B809490550EA76EAA0EA76E0E01B2
:10C40000FF910E0ED16F550EA76EAA0EA76EFF817B
:10C410000F0EBA6ECF0EBA140009BA6EBB6A0F01C6
:10C42000526B800ECB6E040ECA6EA496600E776EB1
:10C430007F0E766E12000001859185938B8094901B
:10C440001200000185A109D08B50010B04E194502A
:10C45000010B01E1010C8591C8DF000185A3C5DF57
:10C46000A4A63AD0A496BA50300BE842E842E8427B
:10C47000E842030819E1400EBB5C10E18B909490F8
:10C48000BA6ACA6A0E01D16B0F01526BCB68766A29
:10C490007768A496000185818593010CBB2ACF0E95
:10C4A000BA140009BA6E000CBA0EE96E0F0EEA6EED
:10C4B000EF50300BE842E842E842E842E82AE85010
:10C4C000030BF36EF46EF346F346F346F346CF0EDA
:0AC4D000EF14F310EF6EF450000CAF
:06C4DA00D9CFE6FFDACF26
:10C4E000E6FFE1CFD9FFE2CFDAFFE652E652E652AD
:10C4F000E652D950F90F146EFF0EDA20156E020EB7
:10C5000014C0DBFF030E15C0DBFF020EDBCFE6FF1E
:10C51000030EDBCFE6FFF90EDBCFE6FFFA0EDBCF33
:10C52000E6FFFB0EDBCFE6FFD950FC0FE66EFF0EF9
:10C53000DA20E66E32EC50F0146E070EE15C02E297
:10C54000E16AE552E16E1450F3CFDEFFF4CFDDFF78
:10C55000FC0EDBCFE9FFFD0EDBCFEAFFEF6ADECF9B
:10C5600014F0DDCF15F014C0F3FF15C0F4FF040E76
:10C57000E15C02E2E16AE552E16EE552E5CFDAFF05
:06C58000E7CFD9FF120015
:0AC586001E0EF66EA00EF76E000EFA
:10C59000F86E00010900F550706F0900F550716FD9
:10C5A00003E1706701D03DD00900F5506B6F0900C1
:10C5B000F5506C6F0900F5506D6F09000900F550DA
:10C5C000E96E0900F550EA6E090009000900F5500E
:10C5D0006E6F0900F5506F6F09000900F6CF72F019
:10C5E000F7CF73F0F8CF74F06BC0F6FF6CC0F7FFB5
:10C5F0006DC0F8FF00016E5302E16F5307E00900C0
:10C60000F550EE6E6E07F8E26F07F9D772C0F6FFCD
:10C6100073C0F7FF74C0F8FF00017007000E715B74
:04C62000BFD712006E
:0CC62400D9CFE6FFDACFE6FFE1CFD9FF67
:10C63000E2CFDAFFFB0EDBCF14F0FC0EDBCF15F000
:10C640000001800E15141AE1FB0EDBCFE9FFFC0E92
:10C65000DBCFEAFFEECFF3FFEDCFF4FFEE2A000EC3
:10C66000EF22F3CFE9FFF4CFEAFFFD0EDBCFEFFFC0
:10C67000EF50156AF36E15C0F4FF10D0FB0EDB50BF
:10C68000FE0806E1FD0EDBCFE6FF3BEC64F005D0D3
:10C69000FD0EDBCFE6FF03EC50F0E552E552E5CFAF
:08C6A000DAFFE7CFD9FF120019
:08C6A80004500902F3CF00F079
:10C6B000F4CF01F00A02F3500126000EF420026EBE
:10C6C00004500B02F3500226000EF420036E0450B7
:10C6D0000C02F350032605500902F3500126F450D2
:10C6E0000222000E032205500A02F3500226F450E3
:10C6F000032205500B02F350032606500902F350A3
:10C700000226F450032206500A02F3500326075073
:08C710000902F3500326120098
:08C71800FE0EE3CFE9FFFF0E66
:10C72000E3CFEAFFF36AF46AEE5203E0F34AF42A35
:10C73000FBD71200FF0EE3CFF8FFE552FF0EE3CF69
:10C74000F7FFE552FF0EE3CFF6FFE552E66AE66A31
:10C75000E66A0900F55209E0FD0EE32A05E1FE0E46
:10C76000E32A02E1FF0EE32AF4D7FD0EE3CF05F042
:0EC77000FE0EE3CF06F0FF0EE3CF07F012003F
:02C77E00036A4C
:10C78000026A016A006A200EE76ED8900436053608
:10C790000636073600360136023603360950005C8D
:10C7A0000A5001580B5002580C50035809E3095025
:10C7B000005E0A50015A0B50025A0C50035A042AC8
:06C7C000E72EE4D7120091
:0AC7C600036A026A100EE76ED890B5
:10C7D00006360736023603360B50025C0C500358FF
:10C7E00005E30B50025E0C50035A062AE72EF0D7E1
:02C7F000120035
:0EC7F200F36AF46AFF0EE124E96EFF0EE22006
:10C80000EA6EED6607D02F0EEF6404D03A0EEF60AB
:06C8100001D0F32A120022
:0AC81600593A202532642E256400F3
:10C82000783A202532642E25640074656D703A20B4
:09C8300025640025640025730055
:06C83A00C00EF36E00EEDB
:10C8400000F00E0E01D81200EA6002D0EE6AFCD7AA
:0AC85000F350E9601200EE6AFCD715
:06C85A001DEE00F02DEEC2
:10C8600000F0F86A0F9CC3EC62F007EC50F059EC52
:06C8700059F0FBD7120095
:0AC87600FF0EE350ADBA04D0B06A23
:10C88000AC8EAD8A949CADA2FED7AE6EF36EF46A08
:02C89000120094
:0EC89200303132333435363738396162636401
:03C8A000656600CA
:01FFF800AA5E
:01FFF900F710
:01FFFA001FE7
:01FFFB00FF06
:01FFFC0063A1
:01FFFD00F80B
:01FFFE008181
:01FFFF00F110
:00000001FF
