:020000040000FA
:0600000001EF63F01200A5
:0600080004EF50F01200AD
:060018000CEF50F0120095
:06A0000001EF63F0120005
:02A00600120046
:06A008002DEF56F01200DE
:02A00E0012003E
:05A0100000000000004B
:06A0180036EF56F01200C5
:02A01E0002003E
:10A0200010A000007B00000005000000DFC0000061
:08A030008500000001000000A2
:08A0380058EC55F0FB0EDBCFE4
:10A04000F3FFDB06F35000090AE0A6EC55F0FA0E28
:10A0500011EC56F0F3E1151CF1E1010E01D0000EF8
:10A0600087EF55F058EC55F03B0EE12402E3E16830
:10A07000E652E16E010EDB6A020EDB6AF90EDBCFFF
:10A08000F6FFFA0EDBCFF7FFFB0EDBCFF8FF080081
:10A09000F550DF6EDF5002E1ABEF54F0250EDF5CD0
:10A0A00002E09EEF54F0030EDB6A040EDB6A050E3D
:10A0B000DB6A060EDB6A070EDB6AC0EC54F02D0E7D
:10A0C000DF5C0CE02B0EDF5C09E0200EDF5C06E0BD
:10A0D000230EDF5C03E0300EDF5C1AE1DF50300A54
:10A0E00014E0130A0FE0030A0AE00B0A05E0060A6F
:10A0F000E4E1030EDB80E1D7030EDB82DED7030E43
:10A10000DB84DBD7030EDB86D8D7030EDB88D5D7FD
:10A110002A0EDF5C1BE1BCEC54F00AEC55F010E0B9
:10A12000030EDB8008680968130EDBCF0DF0140EF8
:10A13000DBCF0EF064EC61F0040E06C0DBFF03D051
:10A14000130EF3EC54F0C0EC54F00BD0090EDB6AA4
:10A1500061EC55F003E0D5EC55F0FAD7090EF3ECBD
:10A1600054F0030EDBB0DB982E0EDF5C1BE1C0EC7D
:10A1700054F02A0EDF5C0BE1BCEC54F00AEC55F015
:10A1800003E1130E45EC55F0C0EC54F00BD0090E72
:10A19000DB6A61EC55F003E0D5EC55F0FAD7090E17
:10A1A00045EC55F0680EDF5C07E1C0EC54F0680E3A
:10A1B000DF5C1DE1030E18D0740EDF5C17E07A0E31
:10A1C000DF5C14E0480EDF5C06E0540EDF5C03E069
:10A1D0005A0EDF5C02E1020E07D06C0EDF5C03E07A
:10A1E0006A0EDF5C04E1010E98EC55F0C9DBDF502C
:10A1F0006E0A01E17FD31E0A01E192D1200A01E13A
:10A200008FD13F0A01E149D11A0A01E146D10D0A75
:10A2100001E143D1200A01E140D13A0A01E13DD1F7
:10A22000200A01E13AD1260A01E135D10D0A01E106
:10A2300032D11A0A01E1D9D0200A4AE0300A1FE0DF
:10A24000460A0EE0250A01E083D3D950F90FE96EE2
:10A25000FF0EDA20EA6E010EEE5E000EEE5AEE5AA6
:10A26000A6EC55F0250EE66E95DB03E1151C01E129
:10A2700069D3A2EC55F001E26BD3DB2A69D3080E57
:10A28000DB6A040EDB50010806E2040EDB046AEC14
:10A2900055F0DB508BDB080EDB5009E0030EDB5082
:10A2A000010B05E172DB01E04DD3080EDB6A64DBD4
:10A2B000EFCFDFFF1AEC56F003E1151C01E142D3AA
:10A2C000A2EC55F001E3DB2A60DB01E141D33AD394
:10A2D000070EDB5002080FE1E6EC55F0030EADEC83
:10A2E00055F00E0EEECFDBFF0F0EEECFDBFF100EA4
:10A2F000EECFDBFF20D0F70EDBCF17F0F80EDBCF71
:10A3000018F0020E175E000E185AF70E17C0DBFF8A
:10A31000F80E18C0DBFF17C0E9FF18C0EAFF9DEC7C
:10A3200055F0166A0E0E14C0DBFF0F0E15C0DBFFD2
:10A33000100E16C0DBFF0E0EDBCFE6FF0F0EDBCFDD
:10A34000E6FF100EDBCFE6FF68EC62F0E552E55267
:10A35000E552130E07C0DBFF140E08C0DBFF060E2C
:10A36000DB5005E0130EE1EC55F001E26ADB05EC91
:10A3700056F002E2130E37DBC8EC55F006E0040E8F
:10A38000E1EC55F002E2050E2EDB030EDBB005D04A
:10A39000FCDA01E0D7D2080EDB6A090EDB6A0E0E8A
:10A3A000DBCFF6FF0F0EDBCFF7FF100EDBCFF8FF92
:10A3B0000800F550DF6EDF5014E00BEC56F011E2B0
:10A3C0001AEC56F003E1151C01E1BCD2BBDB01E342
:10A3D000DB2A090EDB2AD9500E0FE96E000ECBDB0B
:10A3E000E7D7D3DA01E1B4D2ADD2C6DA110EEECF9F
:10A3F000DBFF120EEDCFDBFF110EDBCFE6FF120EFF
:10A40000DBCFE6FF5AEC62F0E552E552130EF3CFD4
:10A41000DBFF140EF4CFDBFF060EDB5004E0130E5F
:10A42000D0DB01E20EDB05EC56F002E2130EDBDAC4
:10A43000AFDB05E0040EC5DB02E2050ED4DA030E45
:10A44000DBB005D0A2DA01E07DD2080EDB6A090E8E
:10A45000DB6A110EDBCFE9FF120EDBCFEAFFEFCF95
:10A46000DFFFDF5014E0D7DB12E2E4DB03E1151C71
:10A4700001E168D267DB01E3DB2A090EDB2A110E5A
:10A48000DB2ADBCFE9FF120EE8E3DB2AE6D77DDA31
:10A4900001E15ED257D2030EDB8E070EDB0410E122
:10A4A00095DB040E5ADB0A0EEECFDBFF0B0EEECF70
:10A4B000DBFF0C0EEECFDBFF0D0EEECFDBFF6CD023
:10A4C000070EDB5003082CE1030EDBAE0DD0B2DA31
:10A4D000020E76DAEFCF14F0156A166A176A14AE18
:10A4E00039D01568166835D0F70EDBCF15F0F80EA9
:10A4F000DBCF16F0020E155E000E165AF70E15C0D1
:10A50000DBFFF80E16C0DBFF15C0E9FF16C0EAFF3F
:10A51000EFCF14F00A0E14C0DBFF0B0EDB6A38D04D
:10A52000070EDB50020809E1030EDBAE04D059DB55
:10A5300016AE10D00ED055DB0DD0030EDBAE12D010
:10A5400079DA020E3DDAF9DA166A176A15AE02D028
:10A5500016681768E2DA0C0E16C0DBFF0D0E17C086
:10A56000DBFF1AD0F70EDBCF16F0F80EDBCF17F0BB
:10A57000020E165E000E175AF70E16C0DBFFF80E1D
:10A5800017C0DBFF16C0E9FF17C0EAFFD6DAC5DA4D
:10A590000C0EDB6A0D0EDB6A060EDB5005E1010EC8
:10A5A000F36E050EF3CFDBFF150EDB6A160EDB6ACA
:10A5B000D950370F146E000EDA20156E390E14C004
:10A5C000DBFF3A0E15C0DBFF380EDB6A080EDB6AD4
:10A5D0000A0EAEDADF50780A12E0200A10E0280AEC
:10A5E0000CE0200A0AE03F0A06E00D0A02E0200A19
:10A5F00008E1020E05D0080E03D0080EDF26100E6B
:10A6000097DA030EDBBE02D0DB92DB94DB50800BCB
:10A6100024E08ADAD890030EEB50000A08E6000E18
:10A62000EE5C000EEE58000EEE58000EEE5815E2ED
:10A6300013DA0B680C680D680E6822EC62F00A0EE3
:10A6400002C0DBFF0B0E03C0DBFF0C0E04C0DBFF00
:10A650000D0E05C0DBFF2D0E08D0030EDBA202D0CD
:10A660002B0E03D0DBA408D0200EF36E170EF3CF11
:10A67000DBFF150EDB2A02D0170EDB6A050EDB505E
:10A6800003E1B7D901E189D03A0E146EC60E156EFA
:10A69000000E166E070EDBCF17F0186A196A1A6AD9
:10A6A00017C00BF018C00CF019C00DF01AC00EF056
:10A6B000D3D98DEC62F014500224F36E15500320B0
:10A6C000F46E16500420F86EF4CFF7FFF3CFF6FFC8
:10A6D0000800090EF5CFDBFF580EDF5C0FE1610EBD
:10A6E000F36E090E7BD90AE3200E146E090EDBCF40
:10A6F000E7FF1450E75E090EE7CFDBFF070EDBCF65
:10A7000014F0156A166A176A0FDA14C00BF015C038
:10A710000CF016C00DF017C00EF0EECF06F0EECF25
:10A7200007F0EECF08F0EFCF09F08DEC62F009C032
:10A73000EDFF08C0EDFF07C0EDFF06C0EFFF390ECB
:10A74000DBCFE9FFDB063A0EDBCFEAFF01E2DB06F7
:10A75000090EDBCFEFFF150EDB2A4BD995E1030E77
:10A76000DBA61DD06F0EDF5C06E1C1D918E3150E24
:10A77000DB285BDA14D0780EDF5C09E0580EDF5C72
:10A7800006E0620EDF5C03E0420EDF5C08E1020ED1
:10A79000F36E160EF3CFDBFF02D0150EDB6A030E4D
:10A7A000DB50100B0EE0040EDBCF14F0050EDB5077
:10A7B000D880145406E2060EDB5003E1040EDB5091
:10A7C00034DA95D90AE2050EDBCFE7FF150EDB5030
:10A7D000E75E050EE7CFDBFF02D0050EDB6A040E55
:10A7E000DBCF14F0160E45D9D880145414E2160E9F
:10A7F000DBCFE6FF150EDBCFE6FF040EDBCFE6FF77
:10A80000050EDB50E552E75CE552D880E754E5528F
:10A81000D880E7545FD9030EDB50010B0BE1080E23
:10A82000DB5008E0B2D801E08DD0080EDB50BED876
:10A83000080EDB6A170EDB5007E088D9170EF1D936
:10A8400003E1151C01E17ED0160EDB5016E07ED927
:10A85000300EE66E9FD802E1151C74E077D9DFCF89
:10A86000E6FFE0EC61F0E552E552E552F4CF15F079
:10A870000001F31C02E1151C65E0050EDBCF14F0AE
:10A88000160EDB50D880145409E2050EDBCFE7FF2B
:10A89000160EDB50E75E050EE7CFDBFF300EE66EEF
:10A8A000050ECBD94FE1390EDB2ADBCFE9FF3A0E9B
:10A8B00001E3DB2ADBCFEAFF090EEFCFDBFFDB5042
:10A8C0000EE044D9090EADD902E1151C3BE0390E6A
:10A8D000DB2ADBCFE9FF3A0EEDE3DB2AEBD755D8D5
:10A8E00031E1160EDBCFE6FF080EC3D8E552E724B0
:10A8F0005DD82ED0070EDB50030A1CE0010A14E0DD
:10A90000030A07E07BD9DBCFEEFF020EDBCFEDFFC2
:10A910001FD0F5D8196A17AE02D0186819682CD85C
:10A92000BCD819C0EEFF14D0EAD817BE186824D8D6
:10A93000B4D80ED063D9DBCFEFFF0AD07BD905E1C5
:10A94000151C03E1F368F46810D0FCD801E3DB2A9E
:10A9500079D947EF50F0010EDBCF14F0020EDBCFB8
:10A9600015F014C0F3FF15C0F4FF3B0EE15C02E2EA
:10A97000E16AE552E16ECBD029D9020EADEF55F078
:10A9800061D90800F550DF6E1200200EE66E080E49
:10A990001DEF56F0E0EC61F0E552E552E552F3CFE1
:10A9A00014F0F4CF15F00001F31C1200146E156AB8
:10A9B000D950010F4DD91450EE261550ED2212003A
:10A9C000185E000E195AF70E18C0DBFFF80E19C0FA
:10A9D000DBFF18C0E9FF19C0EAFF1200DBCFF4FF6C
:10A9E000F350F45C1200DB50E76E040EE7CFDBFFA0
:10A9F00012000A0EDBCF14F00B0EDBCF15F00C0E9D
:10AA0000DBCF16F00D0EDBCF17F01450151016101B
:10AA100017101200130EEECFDBFF140EEDCFDBFF8D
:10AA2000130EDBCF14F0140EDBCF15F00001800EF7
:10AA300015141200F70EDBCF18F0F80EDBCF19F06B
:10AA40001200050EDB50E66ED950130F01D9E55206
:10AA5000E750EE6EED6A12000A0EDBCF06F00B0E29
:10AA6000DBCF07F00C0EDBCF08F00D0EDBCF09F0CB
:10AA70001200DBCFE6FF150EDBCFE6FF050EDB5045
:10AA8000E552E724E552E7241200DB50CED8010E50
:10AA9000F36E060EF3CFDBFF1200EE50EFCFEAFFAE
:10AAA000E96E16C0EEFF17C0EEFF18C0EEFF1200F1
:10AAB000D9CFE6FFDACFE6FFE1CFD9FFE2CFDAFF69
:10AAC0001200DFCFE6FFE66ADFEC62F0E552E55206
:10AAD000F3501200E76E080EE7CFDBFF1200EECF57
:10AAE00014F0EECF15F0EFCF16F0176A1200050E36
:10AAF000DBCF14F0150EDB50D88014541200010E79
:10AB0000DBCF16F0020EDBCF17F0186A1200E55209
:10AB1000E5CFDAFFE7CFD9FF12000A0E14C0DBFF42
:10AB20000B0E15C0DBFF1200D9500A0F28EF56F0AC
:10AB3000F36E070EF3CFDBFF1200EECF14F0EFCF72
:10AB400015F01200010EDB2A020E1200FC0EDBCF04
:10AB5000E6FFFD0EDBCFE6FF1200145E000E155A75
:10AB6000F70E14C0DBFFF80E15C0DBFF14C0E9FFC1
:10AB700015C0EAFF1200DA20EA6EEF2AEECFF6FFE8
:10AB8000000EEF22EECFF7FFEF22EECFF8FF12001C
:10AB9000040EDBCFE6FF130EDB50E552E75C9ADFD5
:10ABA000DB5004DF060EDB501200090EDB500A0DED
:10ABB000F350DF24D00FE76E090EE7CFDBFFC0EFC5
:10ABC00054F0DB50F36E050EEEEF54F0F70EDBCFD2
:10ABD00014F0F80EDBCF15F01200DFCFE6FFCAEF5E
:10ABE00054F028DF030EECDE6FEF55F01CEC50F054
:10ABF000E552E552E552E55200091200BDDEEE5085
:10AC0000EFCFEAFFE96E010E1200130EDB50F36E78
:10AC1000040EEEEF54F0040EDB50F36E090EEEEF6F
:10AC200054F0DBCFE6FFCAEF54F0E76E050EE7CF36
:10AC3000DBFF12008BDFEDEF55F0DBCFE6FF86DFA9
:10AC4000F6EF55F0D950F90FE96EFF0EBBEF55F056
:0AAC5000E96E000EDA20EA6E120031
:06AC5A00DACFE4FFE2CFB7
:10AC6000DAFFE652E552E5CFDAFF1100D8CFE4FF74
:10AC7000E0CFE4FFE46EDACFE4FFE2CFDAFFE652A2
:10AC8000E552E5CFDAFFE550E5CFE0FFE5CFD8FFAD
:10AC90001000B6EC5EF021EC5FF056EC5DF0A1EC3C
:10ACA0005AF0E66A86EC5BF0E552E66AE66A7C0EEC
:10ACB000E66EC50EE66E88EC5CF0E552E552E552B4
:10ACC000E55212009CEC60F0000901E1FBD70F0196
:10ACD0004869496949EF56F0D9CFE6FFE1CFD9FF7E
:10ACE000160EE126D9CFE9FFDACFEAFF420EEE6E6B
:10ACF000750EEE6E740EEE6EEE6E6F0EEE6E6E0EE6
:10AD0000EE6E3A0EEE6EEE6AE30EEE6EEE6EEE6EE6
:10AD1000EE6EEE6EEE6EEE6EEE6EEE6EEE6EEE6E53
:10AD2000EE6E500EF36E140EF3CFDBFF4F0EF36E8C
:10AD3000150EF3CFDBFF81B051D0D9CFE6FFDACFCC
:10AD4000E6FF790E146EC50E156E166A14C0E6FF86
:10AD500015C0E6FF16C0E6FF840EE66E000EE66E36
:10AD6000E8EC60F0176E070EE15E1750E66A030E1E
:10AD7000E66E840EE66E000EE66EC2EC5CF0E55206
:10AD8000E552E552E5522D0EE66EB30EE66E140E58
:10AD9000DBCFE6FF5CEC5CF0E552E552E5520001EA
:10ADA0007CC014F07DC015F07EC016F07FC017F097
:10ADB0007C2B000E7D237E237F23D8800A0E145423
:10ADC000000E1554000E1654000E175406E27C6B4C
:10ADD0007D6B7E6B7F6B010E7B6F43D0D9CFE6FF1F
:10ADE000DACFE6FF790E146EC50E156E166A14C022
:10ADF000E6FF15C0E6FF16C0E6FF840EE66E000E05
:10AE0000E66EE8EC60F0176E070EE15E1750E66A3A
:10AE1000030EE66E840EE66E000EE66EC2EC5CF08B
:10AE2000E552E552E552E5522D0EE66EB30EE66EA2
:10AE3000150EDBCFE6FF5CEC5CF0E552E552E55227
:10AE400000017B050EE17C517D117E117F1104E133
:10AE50007B6B010E08D005D07C07000E7D5B7E5B0E
:10AE60007F5B000E00D0146E160EE15C02E2E16A18
:10AE7000E552E16E1450E552E7CFD9FF1200D9CF69
:10AE8000E6FFE1CFD9FF220EE1261E0EE66EB10EDF
:10AE9000E66E5B0EE66E5CEC5CF0E552E552E55268
:10AEA000500EE66EB10EE66E5D0EE66E5CEC5CF08A
:10AEB000E552E552E552500EE66EB10EE66E5D0EBD
:10AEC000E66E5CEC5CF0E552E552E552230EDE6E78
:10AED000DD6ADECF14F0DDCF15F0153404E2145036
:10AEE0004B08000E155410E3DFCFE6FFB10EE66EFF
:10AEF0002D0EE66E5CEC5CF0E552E552E552DF2A81
:10AF0000010E01E3DB2AE5D7D950FD0FE96EFF0EF4
:10AF1000DA20EA6EEE50ED100CE1230EE66EF10E33
:10AF2000E66E4F0EE66E5CEC5CF0E552E552E552E3
:10AF300033D0320E146E156AFD0EDBCF08F0FE0E14
:10AF4000DBCF09F014C00DF015C00EF03EEC61F03F
:10AF5000020E08C0DBFF030E09C0DBFFD950FD0F56
:10AF6000E96EFF0EDA20EA6EEE50ED1015E0020EEB
:10AF7000DBCF14F0030EDBCF15F0D8901436153666
:10AF8000230E1424E66EF10EE66E4F0EE66E5CECB8
:10AF90005CF0E552E552E552220EE15C02E2E16A24
:10AFA000E552E16EE552E7CFD9FF1200D9CFE6FFB7
:10AFB000E1CFD9FF460EE126D9CFE9FFDACFEAFF8C
:10AFC000EE6AEE6AEE6AEE6AEE6AEE6AEE6AEE6AC1
:10AFD000EE6AEE6AEE6AEE6AEE6AEE6AEE6AEE6AB1
:10AFE000EE6AEE6AEE6AEE6AEE6AEE6AEE6AEE6AA1
:10AFF000EE6AEE6AEE6AEE6AEE6AEE6A56EC5DF0B2
:10B0000061DEC30EC2141009C26EC282C2B2FED784
:10B01000C3CFE6FFC4CFE6FF760E146EC50E156EE5
:10B02000166A14C0E6FF15C0E6FF16C0E6FFD9CFCA
:10B03000E6FFDACFE6FFE8EC60F0176E070EE15EA0
:10B040001750E66A010EE66ED9CFE6FFDACFE6FFCB
:10B05000C2EC5CF0E552E552E552E552E80EC35C05
:10B06000030EC4580BE2120EE66EB10EE66E200E11
:10B07000E66E5CEC5CF0E552E552E552640EC35CB2
:10B08000000EC4580BE20C0EE66EB10EE66E200EFA
:10B09000E66E5CEC5CF0E552E552E5520A0EC35CEC
:10B0A000000EC4580BE2060EE66EB10EE66E200EE0
:10B0B000E66E5CEC5CF0E552E552E552C3CFE6FF8C
:10B0C000C4CFE6FFDCDEE552E55206DEE66AB9EC07
:10B0D0005EF0E552280EF3CFDBFF290EF4CFDBFF45
:10B0E000030EE66EB9EC5EF0E552260EF3CFDBFF01
:10B0F000270EF4CFDBFF010EE66EB9EC5EF0E552F1
:10B10000220EF3CFDBFF230EF4CFDBFF020EE66E41
:10B11000B9EC5EF0E552240EF3CFDBFF250EF4CF41
:10B12000DBFF130EC26ED950260FE96EDACFEAFFAD
:10B13000200ED880EE54030EED540CE2640EE66E41
:10B14000B20EE66E6C0EE66E5CEC5CF0E552E5521B
:10B15000E5520BD0640EE66EB20EE66E4C0EE66E55
:10B160005CEC5CF0E552E552E552D950280FE96EEF
:10B17000DACFEAFF200ED880EE54030EED540CE235
:10B18000780EE66E030EE66E720EE66E5CEC5CF018
:10B19000E552E552E5520BD0780EE66EB20EE66E41
:10B1A000520EE66E5CEC5CF0E552E552E552220E82
:10B1B000DBCF14F0230EDBCF15F0153404E214506E
:10B1C000B608030E15540CE26E0EE66E020EE66E25
:10B1D000550EE66E5CEC5CF0E552E552E5524CD063
:10B1E000220EDBCF14F0230EDBCF15F0D8901550D4
:10B1F00004E6B60E145C030E15580CE26E0EE66EF5
:10B20000B10EE66E200EE66E5CEC5CF0E552E552A7
:10B21000E55232D0240EDBCF14F0250EDBCF15F033
:10B22000153404E21450CA08030E15540CE26E0ED5
:10B23000E66E040EE66E510EE66E5CEC5CF0E552D6
:10B24000E552E55219D0240EDBCF14F0250EDBCFEA
:10B2500015F0D890155004E6CA0E145C030E15586C
:10B260000BE26E0EE66EB30EE66E200EE66E5CEC42
:10B270005CF0E552E552E552020EE66E39EC5EF006
:10B28000E552E76E440EE7CFDBFF030EE66E39ECC6
:10B290005EF0E552E76E450EE7CFDBFF2A0EDB6A74
:10B2A0002B0EDB6A450EDBCF14F014C015F0146AC8
:10B2B0002A0E14C0DBFF2B0E15C0DBFFD9502A0F5E
:10B2C000E96EDACFEAFF000ED880EE54000EED549E
:10B2D00014E22A0EDBCF14F02B0EDBCF15F00A0E92
:10B2E0000D6E0E6A14C008F015C009F0C9EC62F0CA
:10B2F00004C014F005C015F017D02A0EDBCF14F0EF
:10B300002B0EDBCF15F0146C151E000E15220A0E45
:10B310000D6E0E6A14C008F015C009F0C9EC62F099
:10B3200004C014F005C015F014C0E6FF15C0E6FF18
:10B330002A0EDBCF16F02B0EDBCF17F00A0E0D6EA8
:10B340000E6A16C008F017C009F0C9EC62F008C018
:10B3500016F009C017F016C0E6FF17C0E6FF6C0E26
:10B36000186EC50E196E1A6A18C0E6FF19C0E6FFFE
:10B370001AC0E6FFD950300FE66E000EDA20E66EF6
:10B38000E8EC60F01B6E090EE15E1B50E66A050EEC
:10B39000E66ED950300FE66E000EDA20E66EC2EC93
:10B3A0005CF0E552E552E552E552040EE66E39ECEA
:10B3B0005EF0E552E76E440EE7CFDBFF050EE66E6A
:10B3C00039EC5EF0E552E76E450EE7CFDBFFDBCFF1
:10B3D00014F014C015F0146A2C0E14C0DBFF2D0EEF
:10B3E00015C0DBFFD9502C0FE96EDACFEAFF000E53
:10B3F000D880EE54000EED5414E22C0EDBCF14F086
:10B400002D0EDBCF15F00A0E0D6E0E6A14C008F07B
:10B4100015C009F0C9EC62F004C014F005C015F0C5
:10B4200017D02C0EDBCF14F02D0EDBCF15F0146CE3
:10B43000151E000E15220A0E0D6E0E6A14C008F0BD
:10B4400015C009F0C9EC62F004C014F005C015F095
:10B4500014C0E6FF15C0E6FF2C0EDBCF16F02D0E54
:10B46000DBCF17F00A0E0D6E0E6A16C008F017C07B
:10B4700009F0C9EC62F008C016F009C017F016C058
:10B48000E6FF17C0E6FF620E186EC50E196E1A6A47
:10B4900018C0E6FF19C0E6FF1AC0E6FFD950300F0A
:10B4A000E66E000EDA20E66EE8EC60F01B6E090E28
:10B4B000E15E1B50E66A060EE66ED950300FE66E6E
:10B4C000000EDA20E66EC2EC5CF0E552E552E55281
:10B4D000E55297D5460EE15C02E2E16AE552E16E83
:08B4E000E552E7CFD9FF12008D
:08B4E800D9CFE6FFE1CFD9FF47
:10B4F000020EE126FD0EDBCF14F0DB06FE0EDBCFE5
:10B5000015F001E2DB061450151011E0DE6ADD6A69
:10B51000DECF14F0DDCF15F0E30E145C0D0E1558E0
:10B5200005E2DF2A010E01E3DB2AF2D7E3D7020EA0
:10B53000E15C02E2E16AE552E16EE552E7CFD9FF54
:10B540001200D9CFE6FFE1CFD9FF060EE1268D929A
:10B5500096928D9096908D8496948A9A939A8C92D6
:10B56000DE6ADE6ADE6ADD6ADD52DD52D9CFE9FFCE
:10B57000DACFEAFF640EEE5C000EEE58000EEE58D5
:10B58000000EEE580AE2D9CFE9FFDACFEAFFEE2A41
:10B59000000EEE22EE22EE22E9D78C82DE6ADE6A0F
:10B5A000DE6ADD6ADD52DD52D9CFE9FFDACFEAFF8C
:10B5B000640EEE5C000EEE58000EEE58000EEE58D3
:10B5C0000AE2D9CFE9FFDACFEAFFEE2A000EEE2237
:10B5D000EE22EE22E9D7AE0EE66E70D8E552DB0E13
:10B5E000E66E6CD8E552230EE66E68D8E552D90EA9
:10B5F000E66E64D8E552220EE66E60D8E552A10EE2
:10B60000E66E5CD8E552C80EE66E58D8E552DA0E02
:10B61000E66E54D8E552120EE66E50D8E552A80EEA
:10B62000E66E4CD8E5523F0EE66E48D8E552D50E90
:10B63000E66E44D8E552A00EE66E40D8E552810E83
:10B64000E66E3CD8E552600EE66E38D8E552D30E71
:10B65000E66E34D8E552E66A31D8E552A60EE66EBB
:10B660002DD8E552AD0EE66E29D8E5528B0EE66E6A
:10B6700025D8E552AF0EE66E21D8E5520A0EE66EE9
:10B68000E66A32DFE552E552A40EE66E17D8E552BF
:10B69000400EE66E13D8E552020EE66E0FD8E55264
:10B6A000100EE66E0BD8E552060EE15C02E2E16A8E
:10B6B000E552E16EE552E7CFD9FF1200D9CFE6FFA0
:10B6C000E1CFD9FF956AFE0EDB508C6E8D808D82A6
:10B6D0008A9A8D948D928D828D849568E552E7CFFC
:10B6E000D9FF1200D9CFE6FFE1CFD9FF956AFE0E50
:10B6F000DB508C6E8D808D828A8A8D948D928D82A6
:10B700008D849568E552E7CFD9FF1200D9CFE6FFC7
:10B71000E1CFD9FF020EE126B00EDF6EB80EDF5C7E
:10B7200023E2DFCFE6FFCADFE552020EE66EC6DF98
:10B73000E552100EE66EC2DFE552010EDB6ADB5009
:10B74000146E156AD890155004E6840E145C000E31
:10B75000155808E2FE0EDBCFE6FFC4DFE552010E0E
:10B76000DB2AEDD7DF2ADAD7020EE15C03E200D054
:10B77000E16AE552E16EE552E7CFD9FF1200D9CF79
:10B78000E6FFE1CFD9FF200E146EFE0EDBCFE7FF00
:10B790001450E75EFE0EE7CFDBFFDBCFF6FFF76A64
:10B7A000F6BEF768050EF702F3CFF7FFF602F3CF08
:10B7B000F6FFF450F726040EF626BF0EF722080017
:10B7C000F550E66E8FDFE552FE0EDBCFF6FFF76A2F
:10B7D000F6BEF768050EF702F3CFF7FFF602F3CFD8
:10B7E000F6FFF450F726040EF626BF0EF722010EE0
:10B7F000F626000EF7220800F550E66E73DFE552DC
:10B80000FE0EDBCFF6FFF76AF6BEF768050EF7020D
:10B81000F3CFF7FFF602F3CFF6FFF450F726040E4E
:10B82000F626BF0EF722020EF626000EF7220800BB
:10B83000F550E66E57DFE552FE0EDBCFF6FFF76AF6
:10B84000F6BEF768050EF702F3CFF7FFF602F3CF67
:10B85000F6FFF450F726040EF626BF0EF722030E6D
:10B86000F626000EF7220800F550E66E3BDFE552A3
:10B87000FE0EDBCFF6FFF76AF6BEF768050EF7029D
:10B88000F3CFF7FFF602F3CFF6FFF450F726040EDE
:10B89000F626BF0EF722040EF626000EF722080049
:10B8A000F550E66E1FDFE552E66A1CDFE55200D078
:10B8B000E552E7CFD9FF1200D9CFE6FFE1CFD9FF9C
:10B8C000E652FD0EDBCFE6FFF9DEE552020E146E06
:10B8D000FC0EDBCFE7FF1450E726FC0EE7CFDBFFC3
:10B8E000DB500F0BE66EEADEE552FC0EDB380F0B89
:10B8F0000F0B100FE66EE2DEE552FE0EDBCFE6FF29
:10B900003EDFE55200D0E552E552E7CFD9FF120005
:10B91000D9CFE6FFE1CFD9FFFC0EDB50B00FE76EC9
:10B92000FC0EE7CFDBFFFB0EDBCFE6FFFC0EDBCF31
:10B93000E6FFFD0EDBCFF6FFFE0EDBCFF7FF0800C4
:10B94000F550E66EB9DFE552E552E552FD0EDB2A11
:10B95000DBCFF6FFFE0E01E3DB2ADBCFF7FF0800AB
:10B96000F5500CE0FD0EDBCFF6FFFE0EDBCFF7FF50
:10B970000800F550E66E03DFE552E8D7E552E7CF61
:10B98000D9FF1200D9CFE6FFE1CFD9FFFC0EDB5083
:10B99000B00FE76EFC0EE7CFDBFFFB0EDBCFE6FF61
:10B9A000FC0EDBCFE6FFFD0EDBCFE9FFFE0EDBCFAB
:10B9B000EAFFEF50E66E80DFE552E552E552FD0EFC
:10B9C000DB2ADBCFE9FFFE0E01E3DB2ADBCFEAFF58
:10B9D000EF500BE0FD0EDBCFE9FFFE0EDBCFEAFF01
:10B9E000EF50E66ECCDEE552EAD7E552E7CFD9FF5D
:10B9F0001200D9CFE6FFE1CFD9FF050EE126030EF5
:10BA0000DB6A040EDB6A020E146EFA0EDBCFE7FF70
:10BA10001450E726FA0EE7CFDBFFF90EDB50B00F2C
:10BA2000DF6EFB0EDB50B00FDF5C35E2DFCFE6FFF1
:10BA300045DEE552FA0EDB500F0BE66E3FDEE552B7
:10BA4000FA0EDB380F0B0F0B1009E66E37DEE552EE
:10BA5000010EDB6AFC0EDB50F36E010EDBCFF4FF50
:10BA6000F350F45C16E2030EDB2A040E01E3DB2A3A
:10BA7000FD0EDBCFF6FFDB2AFE0EDBCFF7FF01E387
:10BA8000DB2A0800F550E66E2DDEE552010EDB2ABA
:10BA9000E1D7DF2AC6D7050EE15C03E200D0E16AF8
:0CBAA000E552E16EE552E7CFD9FF12003D
:04BAAC00D9CFE6FF09
:10BAB000E1CFD9FF030EE12659D8736A820E726E68
:10BAC000739C94949396958C7288728A949EE66A7D
:10BAD000D0D8E552E76E020EE7CFDBFF0000D95069
:10BAE000020FE96EDACFEAFFEF50070B020801E020
:10BAF0000000140EE66EBDD8E552E76E020EE7CFE9
:10BB0000DBFF020EDB96DB88020EDB80DB92DB9430
:10BB1000020EDBCFE6FF140EE66E3AD8E552E55290
:10BB2000010EE66EA6D8E552DE6EDD6A0000110E4B
:10BB3000E66E9FD8E552DE6EDD6A0000E66A110E01
:10BB4000E66E26D8E552E5520000110EE66E91D859
:10BB5000E552DE6EDD6A0000030EE15C02E2E16A9E
:10BB6000E552E16EE552E7CFD9FF1200550EA76E00
:10BB7000AA0EA76E0E01FF91090ECC6F0A0ED36FAD
:10BB8000170EFB6F550EA76EAA0EA76EFF8112004F
:10BB9000D9CFE6FFE1CFD9FFE652DF6AFE0EDB50D8
:10BBA000140804E0FE0EDB50340806E1140EE66EC5
:10BBB00060D8E552E00BDF6E8B9EA49EFE0EDB503C
:10BBC000756EA4AEFED7000000000000000000006B
:10BBD0000000000000000000000000000000000065
:10BBE0000000000000000000000000000000000055
:10BBF0000000000000000000000000000000000045
:10BC00000000000000000000000000000000000034
:10BC10000000000000000000000000000000000024
:10BC20000000000000000000000000000000000014
:10BC30000000000000000000000000000000000004
:10BC4000000000000000A49EFE0EDB500A0805E183
:10BC5000FD0EDB507F0B756E04D0FD0EDB50DF1048
:10BC6000756EA4AEFED78B8EE552E552E7CFD9FFB5
:10BC70001200D9CFE6FFE1CFD9FF8B9EA49EFE0E26
:10BC8000DB508009756EA4AEFED7000000000000F6
:10BC900000000000000000000000000000000000A4
:10BCA0000000000000000000000000000000000094
:10BCB0000000000000000000000000000000000084
:10BCC0000000000000000000000000000000000074
:10BCD0000000000000000000000000000000000064
:10BCE0000000000000000000000000000000000054
:10BCF0000000000000000000000000000000000044
:10BD000000000000000000000000A49E756AA4AEC0
:10BD1000FED78B8E755000D0E552E7CFD9FF1200C9
:10BD2000030EB16EB392B390B396B288B28EB29056
:10BD3000B292A494B38E12002F0E926E0F01E00EF9
:10BD4000486F1F0E496FC18EC19CC70EC1140809F0
:10BD5000C16EF80EC1140209C16E498FC29CC29E09
:10BD6000C30EC2140809C26EC2801200D9DF9CEF54
:10BD70005EF0D9CFE6FFE1CFD9FF020EE126FE0E3D
:10BD8000DB500F0BF36EF346F346C30EC214F310F1
:10BD9000C26EFE0EDB50EA6A800FE96E000EEA22E8
:10BDA000EF503F0BF36EF346F346030EB114F3105E
:10BDB000B16EB38EB38200000000000000000000EE
:10BDC0000000000000000000000000000000000073
:10BDD0000000000000000000000000000000B3921E
:10BDE000B280000000000000000000000000000021
:10BDF0000000000000000000000000000000000043
:10BE000000000000000000000000B2909E9CC28272
:10BE10009EACFED7C3CFDEFFC4CFDDFFDECF14F074
:10BE2000DDCF15F014C0F3FF15C0F4FF00D0020EF3
:10BE3000E15C02E2E16AE552E16EE552E7CFD9FF4B
:10BE40001200D9CFE6FFE1CFD9FF030EE126020EA3
:10BE5000DB6A040EF36E020EDBCFF4FFF350F45CEA
:10BE600021E22AD8EF6A30D80CE226D8EF501F081A
:10BE700003E122D8EF6A13D01FD8EF2A25D8F5E3C3
:10BE80000ED02CD80CE218D8EF50E10803E114D8FA
:10BE9000EF6A05D011D8EF062BD820D8F4E3020EB4
:10BEA000DB2AD7D7030EE15C02E2E16AE552E16EDC
:10BEB000E552E7CFD9FF1200020EDB50EA6A800F8D
:10BEC000E96E000EEA22120013D8DECF14F0DDCFA7
:10BED00015F0200E145C030E15581200D9CFE9FF9F
:10BEE000DACFEAFF200ED880EE54030EED54120094
:10BEF000020EDBCFE6FF3DDFE552F3CFDEFFF4CFEE
:04BF0000DDFF12004F
:0CBF0400000000000000004F00000007DB
:10BF1000000700147F147F14242A7F2A1223130899
:10BF2000646236495522500005030000001C22417E
:10BF3000000041221C0014083E081408083E0808AE
:10BF40000050300000080808080800606000002069
:10BF5000100804023E5149453E00427F40004261C4
:10BF60005149462141454B311814127F1027454550
:10BF700045393C4A49493001710905033649494967
:10BF800036064949291E00363600000056360000A4
:10BF9000081422410014141414140041221408023D
:10BFA00001510906324979413E7E1111117E7F49C6
:10BFB0004949363E414141227F4141221C7F494946
:10BFC00049417F090909013E4149497A7F0808082A
:10BFD0007F00417F41002040413F017F0814224102
:10BFE0007F404040407F020C027F7F0408107F3E6C
:10BFF0004141413E7F090909063E4151215E7F09C9
:10C00000192946464949493101017F01013F404014
:10C01000403F1F2040201F3F4038403F631408141A
:10C020006307087008076151494543007F4141009B
:10C0300002040810200041417F0004020102044074
:10C0400040404040000102040020545454787F488E
:10C050004444383844444420384444487F38545495
:10C060005418087E0901020C5252523E7F08040403
:10C070007800447D40002040443D007F102844006B
:10C0800000417F40007C041804787C080404783860
:10C09000444444387C14141408081414187C7C0894
:10C0A0000404084854545420043F4440203C404079
:10C0B000207C1C2040201C3C4030403C4428102860
:10C0C000440C5050503C4464544C440008364100E9
:0FC0D00000007F00000041360800020102040258
:01C0DF000060
:10C0E000000185B122D085838B809490550EA76E78
:10C0F000AA0EA76E0E01FF910E0ED16F550EA76E00
:10C10000AA0EA76EFF810F0EBA6ECF0EBA140009E9
:10C11000BA6EBB6A0F01526B800ECB6E040ECA6EF4
:10C12000A496600E776E7F0E766E120000018591E8
:10C1300085938B8094901200000185A109D08B50CB
:10C14000010B04E19450010B01E1010C8591C8DF62
:10C15000000185A3C5DFA4A63AD0A496BA50300B3F
:10C16000E842E842E842E842030819E1400EBB5CBD
:10C1700010E18B909490BA6ACA6A0E01D16B0F01DC
:10C18000526BCB68766A7768A496000185818593A7
:10C19000010CBB2ACF0EBA140009BA6E000CBA0EFD
:10C1A000E96E0F0EEA6EEF50300BE842E842E842CB
:10C1B000E842E82AE850030BF36EF46EF346F346C8
:10C1C000F346F346CF0EEF14F310EF6EF450000C6D
:10C1D000D9CFE6FFDACFE6FFE1CFD9FFE2CFDAFF32
:10C1E000E652E652E652E652D950F90F146EFF0EAF
:10C1F000DA20156E020E14C0DBFF030E15C0DBFF44
:10C20000020EDBCFE6FF030EDBCFE6FFF90EDBCF3E
:10C21000E6FFFA0EDBCFE6FFFB0EDBCFE6FFD950E1
:10C22000FC0FE66EFF0EDA20E66E32EC50F0146E74
:10C23000070EE15C02E2E16AE552E16E1450F3CFD1
:10C24000DEFFF4CFDDFFFC0EDBCFE9FFFD0EDBCF21
:10C25000EAFFEF6ADECF14F0DDCF15F014C0F3FF74
:10C2600015C0F4FF040EE15C02E2E16AE552E16E02
:0CC27000E552E5CFDAFFE7CFD9FF12005E
:04C27C00006A0EAE98
:10C2800047EF61F00D6C0E1EE86A0E22001E09AE2B
:10C290004FEF61F0086C091EE86A0922001EC9EC24
:10C2A00062F009BE5FEF61F000AE000C086C091E81
:10C2B000E86A0922046C051EE86A0522000C00BE2B
:10C2C00056EF61F00188FF0C09C013F008C012F0AE
:10C2D00008500D02F4CF07F0F3CF06F009500E021C
:10C2E000F4CF09F0F3CF08F00D02F3500726F45015
:10C2F0000822E86A092212500E02F3500726F45071
:10C300000822E86A09220EAE8AEF61F01250085E38
:10C310001350095A13AE000C0D50085E0E50095A06
:02C32000000C0F
:0EC322001E0EF66EA00EF76E000EF86E0001F5
:10C330000900F550706F0900F550716F03E17067E7
:10C3400001D03DD00900F5506B6F0900F5506C6FBE
:10C350000900F5506D6F09000900F550E96E0900FC
:10C36000F550EA6E090009000900F5506E6F0900EA
:10C37000F5506F6F09000900F6CF72F0F7CF73F038
:10C38000F8CF74F06BC0F6FF6CC0F7FF6DC0F8FF1C
:10C3900000016E5302E16F5307E00900F550EE6EA5
:10C3A0006E07F8E26F07F9D772C0F6FF73C0F7FFA8
:10C3B00074C0F8FF00017007000E715BBFD7120058
:10C3C000D9CFE6FFDACFE6FFE1CFD9FFE2CFDAFF40
:10C3D000FB0EDBCF14F0FC0EDBCF15F00001800E5E
:10C3E00015141AE1FB0EDBCFE9FFFC0EDBCFEAFFF1
:10C3F000EECFF3FFEDCFF4FFEE2A000EEF22F3CFE6
:10C40000E9FFF4CFEAFFFD0EDBCFEFFFEF50156A37
:10C41000F36E15C0F4FF10D0FB0EDB50FE0806E1F2
:10C42000FD0EDBCFE6FF0FEC63F005D0FD0EDBCF9A
:10C43000E6FF03EC50F0E552E552E5CFDAFFE7CF37
:04C44000D9FF12000E
:0CC4440006500B02F3CF02F0F4CF03F01F
:10C450000C02F3500326000EF420046E06500D0269
:10C46000F3500426000EF420056E06500E02F35021
:10C47000052607500B02F3500326F4500422000E49
:10C48000052207500C02F3500426F45005220750F1
:10C490000D02F350052608500B02F3500426F45009
:10C4A000052208500C02F350052609500B02F350E8
:04C4B000052612004B
:0CC4B400FE0EE3CFE9FFFF0EE3CFEAFF2E
:10C4C000F36AF46AEE5203E0F34AF42AFBD712004F
:10C4D000FF0EE3CFF8FFE552FF0EE3CFF7FFE55283
:10C4E000FF0EE3CFF6FFE552E66AE66AE66A090068
:10C4F000F55209E0FD0EE32A05E1FE0EE32A02E112
:10C50000FF0EE32AF4D7FD0EE3CF07F0FE0EE3CFD4
:0AC5100008F0FF0EE3CF09F012005F
:06C51A00056A046A036AD1
:10C52000026A200EE76ED8900636073608360936BE
:10C5300002360336043605360B50025C0C500358A5
:10C540000D5004580E50055809E30B50025E0C5074
:10C55000035A0D50045A0E50055A062AE72EE4D706
:02C560001200C7
:0EC56200593A202532642E256400783A2025AF
:10C5700032642E2564002564002573002050494351
:10C580003138462053746172746572204B6974208F
:02C59000200089
:0EC59200056A046A100EE76ED8900836093666
:10C5A000043605360D50045C0E50055805E30D5059
:0EC5B000045E0E50055A082AE72EF0D712003E
:02C5BE00F36A1E
:10C5C000F46AFF0EE124E96EFF0EE220EA6EED66EA
:10C5D00007D02F0EEF6404D03A0EEF6001D0F32A9B
:02C5E000120047
:0EC5E200C00EF36E00EE00F00E0E01D8120037
:10C5F000EA6002D0EE6AFCD7F350E9601200EE6AFE
:02C60000FCD765
:0EC602001DEE00F02DEE00F0F86A019C91ECA8
:0EC6100061F007EC50F0D6EC57F0FBD71200AB
:02C61E00FF0E0D
:10C62000E350ADBA04D0B06AAC8EAD8A949CADA292
:0AC63000FED7AE6EF36EF46A12003E
:06C63A00303132333435CB
:0BC640003637383961626364656600BC
:01FFF800AA5E
:01FFF900F710
:01FFFA001FE7
:01FFFB00FF06
:01FFFC0063A1
:01FFFD00F80B
:01FFFE008181
:01FFFF00F110
:00000001FF
