:020000040000FA
:0600000010EF61F0120098
:0600080004EF50F01200AD
:060018000CEF50F0120095
:06A0000010EF61F01200F8
:02A00600120046
:06A008000FEF59F01200F9
:02A00E0012003E
:06A010000000000000004A
:06A0180018EF59F01200E0
:02A01E0002003E
:10A0200010A0000070000000060000004BBD000002
:08A03000FF0100000100000027
:08A0380058EC55F0FB0EDBCFE4
:10A04000F3FFDB06F35000090AE0A6EC55F0FA0E28
:10A0500011EC56F0F3E1151CF1E1010E01D0000EF8
:10A0600087EF55F058EC55F03B0EE12402E3E16830
:10A07000E652E16E010EDB6A020EDB6AF90EDBCFFF
:10A08000F6FFFA0EDBCFF7FFFB0EDBCFF8FF080081
:10A09000F550DF6EDF5002E1ABEF54F0250EDF5CD0
:10A0A00002E09EEF54F0030EDB6A040EDB6A050E3D
:10A0B000DB6A060EDB6A070EDB6AC0EC54F02D0E7D
:10A0C000DF5C0CE02B0EDF5C09E0200EDF5C06E0BD
:10A0D000230EDF5C03E0300EDF5C1AE1DF50300A54
:10A0E00014E0130A0FE0030A0AE00B0A05E0060A6F
:10A0F000E4E1030EDB80E1D7030EDB82DED7030E43
:10A10000DB84DBD7030EDB86D8D7030EDB88D5D7FD
:10A110002A0EDF5C1BE1BCEC54F00AEC55F010E0B9
:10A12000030EDB8006680768130EDBCF0BF0140EFE
:10A13000DBCF0CF070EC60F0040E04C0DBFF03D04A
:10A14000130EF3EC54F0C0EC54F00BD0090EDB6AA4
:10A1500061EC55F003E0D5EC55F0FAD7090EF3ECBD
:10A1600054F0030EDBB0DB982E0EDF5C1BE1C0EC7D
:10A1700054F02A0EDF5C0BE1BCEC54F00AEC55F015
:10A1800003E1130E45EC55F0C0EC54F00BD0090E72
:10A19000DB6A61EC55F003E0D5EC55F0FAD7090E17
:10A1A00045EC55F0680EDF5C07E1C0EC54F0680E3A
:10A1B000DF5C1DE1030E18D0740EDF5C17E07A0E31
:10A1C000DF5C14E0480EDF5C06E0540EDF5C03E069
:10A1D0005A0EDF5C02E1020E07D06C0EDF5C03E07A
:10A1E0006A0EDF5C04E1010E98EC55F0C9DBDF502C
:10A1F0006E0A01E17FD31E0A01E192D1200A01E13A
:10A200008FD13F0A01E149D11A0A01E146D10D0A75
:10A2100001E143D1200A01E140D13A0A01E13DD1F7
:10A22000200A01E13AD1260A01E135D10D0A01E106
:10A2300032D11A0A01E1D9D0200A4AE0300A1FE0DF
:10A24000460A0EE0250A01E083D3D950F90FE96EE2
:10A25000FF0EDA20EA6E010EEE5E000EEE5AEE5AA6
:10A26000A6EC55F0250EE66E95DB03E1151C01E129
:10A2700069D3A2EC55F001E26BD3DB2A69D3080E57
:10A28000DB6A040EDB50010806E2040EDB046AEC14
:10A2900055F0DB508BDB080EDB5009E0030EDB5082
:10A2A000010B05E172DB01E04DD3080EDB6A64DBD4
:10A2B000EFCFDFFF1AEC56F003E1151C01E142D3AA
:10A2C000A2EC55F001E3DB2A60DB01E141D33AD394
:10A2D000070EDB5002080FE1E6EC55F0030EADEC83
:10A2E00055F00E0EEECFDBFF0F0EEECFDBFF100EA4
:10A2F000EECFDBFF20D0F70EDBCF17F0F80EDBCF71
:10A3000018F0020E175E000E185AF70E17C0DBFF8A
:10A31000F80E18C0DBFF17C0E9FF18C0EAFF9DEC7C
:10A3200055F0166A0E0E14C0DBFF0F0E15C0DBFFD2
:10A33000100E16C0DBFF0E0EDBCFE6FF0F0EDBCFDD
:10A34000E6FF100EDBCFE6FF4BEC60F0E552E55286
:10A35000E552130E05C0DBFF140E06C0DBFF060E30
:10A36000DB5005E0130EE1EC55F001E26ADB05EC91
:10A3700056F002E2130E37DBC8EC55F006E0040E8F
:10A38000E1EC55F002E2050E2EDB030EDBB005D04A
:10A39000FCDA01E0D7D2080EDB6A090EDB6A0E0E8A
:10A3A000DBCFF6FF0F0EDBCFF7FF100EDBCFF8FF92
:10A3B0000800F550DF6EDF5014E00BEC56F011E2B0
:10A3C0001AEC56F003E1151C01E1BCD2BBDB01E342
:10A3D000DB2A090EDB2AD9500E0FE96E000ECBDB0B
:10A3E000E7D7D3DA01E1B4D2ADD2C6DA110EEECF9F
:10A3F000DBFF120EEDCFDBFF110EDBCFE6FF120EFF
:10A40000DBCFE6FF3DEC60F0E552E552130EF3CFF3
:10A41000DBFF140EF4CFDBFF060EDB5004E0130E5F
:10A42000D0DB01E20EDB05EC56F002E2130EDBDAC4
:10A43000AFDB05E0040EC5DB02E2050ED4DA030E45
:10A44000DBB005D0A2DA01E07DD2080EDB6A090E8E
:10A45000DB6A110EDBCFE9FF120EDBCFEAFFEFCF95
:10A46000DFFFDF5014E0D7DB12E2E4DB03E1151C71
:10A4700001E168D267DB01E3DB2A090EDB2A110E5A
:10A48000DB2ADBCFE9FF120EE8E3DB2AE6D77DDA31
:10A4900001E15ED257D2030EDB8E070EDB0410E122
:10A4A00095DB040E5ADB0A0EEECFDBFF0B0EEECF70
:10A4B000DBFF0C0EEECFDBFF0D0EEECFDBFF6CD023
:10A4C000070EDB5003082CE1030EDBAE0DD0B2DA31
:10A4D000020E76DAEFCF14F0156A166A176A14AE18
:10A4E00039D01568166835D0F70EDBCF15F0F80EA9
:10A4F000DBCF16F0020E155E000E165AF70E15C0D1
:10A50000DBFFF80E16C0DBFF15C0E9FF16C0EAFF3F
:10A51000EFCF14F00A0E14C0DBFF0B0EDB6A38D04D
:10A52000070EDB50020809E1030EDBAE04D059DB55
:10A5300016AE10D00ED055DB0DD0030EDBAE12D010
:10A5400079DA020E3DDAF9DA166A176A15AE02D028
:10A5500016681768E2DA0C0E16C0DBFF0D0E17C086
:10A56000DBFF1AD0F70EDBCF16F0F80EDBCF17F0BB
:10A57000020E165E000E175AF70E16C0DBFFF80E1D
:10A5800017C0DBFF16C0E9FF17C0EAFFD6DAC5DA4D
:10A590000C0EDB6A0D0EDB6A060EDB5005E1010EC8
:10A5A000F36E050EF3CFDBFF150EDB6A160EDB6ACA
:10A5B000D950370F146E000EDA20156E390E14C004
:10A5C000DBFF3A0E15C0DBFF380EDB6A080EDB6AD4
:10A5D0000A0EAEDADF50780A12E0200A10E0280AEC
:10A5E0000CE0200A0AE03F0A06E00D0A02E0200A19
:10A5F00008E1020E05D0080E03D0080EDF26100E6B
:10A6000097DA030EDBBE02D0DB92DB94DB50800BCB
:10A6100024E08ADAD890030EEB50000A08E6000E18
:10A62000EE5C000EEE58000EEE58000EEE5815E2ED
:10A6300013DA09680A680B680C6805EC60F00A0E0A
:10A6400000C0DBFF0B0E01C0DBFF0C0E02C0DBFF06
:10A650000D0E03C0DBFF2D0E08D0030EDBA202D0CF
:10A660002B0E03D0DBA408D0200EF36E170EF3CF11
:10A67000DBFF150EDB2A02D0170EDB6A050EDB505E
:10A6800003E1B7D901E189D0580E146EC20E156EE0
:10A69000000E166E070EDBCF17F0186A196A1A6AD9
:10A6A00017C009F018C00AF019C00BF01AC00CF05E
:10A6B000D3D99DEC60F014500024F36E15500120A6
:10A6C000F46E16500220F86EF4CFF7FFF3CFF6FFCA
:10A6D0000800090EF5CFDBFF580EDF5C0FE1610EBD
:10A6E000F36E090E7BD90AE3200E146E090EDBCF40
:10A6F000E7FF1450E75E090EE7CFDBFF070EDBCF65
:10A7000014F0156A166A176A0FDA14C009F015C03A
:10A710000AF016C00BF017C00CF0EECF04F0EECF2D
:10A7200005F0EECF06F0EFCF07F09DEC60F007C02C
:10A73000EDFF06C0EDFF05C0EDFF04C0EFFF390ED1
:10A74000DBCFE9FFDB063A0EDBCFEAFF01E2DB06F7
:10A75000090EDBCFEFFF150EDB2A4BD995E1030E77
:10A76000DBA61DD06F0EDF5C06E1C1D918E3150E24
:10A77000DB285BDA14D0780EDF5C09E0580EDF5C72
:10A7800006E0620EDF5C03E0420EDF5C08E1020ED1
:10A79000F36E160EF3CFDBFF02D0150EDB6A030E4D
:10A7A000DB50100B0EE0040EDBCF14F0050EDB5077
:10A7B000D880145406E2060EDB5003E1040EDB5091
:10A7C00034DA95D90AE2050EDBCFE7FF150EDB5030
:10A7D000E75E050EE7CFDBFF02D0050EDB6A040E55
:10A7E000DBCF14F0160E45D9D880145414E2160E9F
:10A7F000DBCFE6FF150EDBCFE6FF040EDBCFE6FF77
:10A80000050EDB50E552E75CE552D880E754E5528F
:10A81000D880E7545FD9030EDB50010B0BE1080E23
:10A82000DB5008E0B2D801E08DD0080EDB50BED876
:10A83000080EDB6A170EDB5007E088D9170EF1D936
:10A8400003E1151C01E17ED0160EDB5016E07ED927
:10A85000300EE66E9FD802E1151C74E077D9DFCF89
:10A86000E6FFC3EC5FF0E552E552E552F4CF15F098
:10A870000001F31C02E1151C65E0050EDBCF14F0AE
:10A88000160EDB50D880145409E2050EDBCFE7FF2B
:10A89000160EDB50E75E050EE7CFDBFF300EE66EEF
:10A8A000050ECBD94FE1390EDB2ADBCFE9FF3A0E9B
:10A8B00001E3DB2ADBCFEAFF090EEFCFDBFFDB5042
:10A8C0000EE044D9090EADD902E1151C3BE0390E6A
:10A8D000DB2ADBCFE9FF3A0EEDE3DB2AEBD755D8D5
:10A8E00031E1160EDBCFE6FF080EC3D8E552E724B0
:10A8F0005DD82ED0070EDB50030A1CE0010A14E0DD
:10A90000030A07E07BD9DBCFEEFF020EDBCFEDFFC2
:10A910001FD0F5D8196A17AE02D0186819682CD85C
:10A92000BCD819C0EEFF14D0EAD817BE186824D8D6
:10A93000B4D80ED063D9DBCFEFFF0AD07BD905E1C5
:10A94000151C03E1F368F46810D0FCD801E3DB2A9E
:10A9500079D947EF50F0010EDBCF14F0020EDBCFB8
:10A9600015F014C0F3FF15C0F4FF3B0EE15C02E2EA
:10A97000E16AE552E16ECBD029D9020EADEF55F078
:10A9800061D90800F550DF6E1200200EE66E080E49
:10A990001DEF56F0C3EC5FF0E552E552E552F3CF00
:10A9A00014F0F4CF15F00001F31C1200146E156AB8
:10A9B000D950010F4DD91450EE261550ED2212003A
:10A9C000185E000E195AF70E18C0DBFFF80E19C0FA
:10A9D000DBFF18C0E9FF19C0EAFF1200DBCFF4FF6C
:10A9E000F350F45C1200DB50E76E040EE7CFDBFFA0
:10A9F00012000A0EDBCF14F00B0EDBCF15F00C0E9D
:10AA0000DBCF16F00D0EDBCF17F01450151016101B
:10AA100017101200130EEECFDBFF140EEDCFDBFF8D
:10AA2000130EDBCF14F0140EDBCF15F00001800EF7
:10AA300015141200F70EDBCF18F0F80EDBCF19F06B
:10AA40001200050EDB50E66ED950130F01D9E55206
:10AA5000E750EE6EED6A12000A0EDBCF04F00B0E2B
:10AA6000DBCF05F00C0EDBCF06F00D0EDBCF07F0D1
:10AA70001200DBCFE6FF150EDBCFE6FF050EDB5045
:10AA8000E552E724E552E7241200DB50CED8010E50
:10AA9000F36E060EF3CFDBFF1200EE50EFCFEAFFAE
:10AAA000E96E16C0EEFF17C0EEFF18C0EEFF1200F1
:10AAB000D9CFE6FFDACFE6FFE1CFD9FFE2CFDAFF69
:10AAC0001200DFCFE6FFE66AEEEC60F0E552E552F9
:10AAD000F3501200E76E080EE7CFDBFF1200EECF57
:10AAE00014F0EECF15F0EFCF16F0176A1200050E36
:10AAF000DBCF14F0150EDB50D88014541200010E79
:10AB0000DBCF16F0020EDBCF17F0186A1200E55209
:10AB1000E5CFDAFFE7CFD9FF12000A0E14C0DBFF42
:10AB20000B0E15C0DBFF1200D9500A0F28EF56F0AC
:10AB3000F36E070EF3CFDBFF1200EECF14F0EFCF72
:10AB400015F01200010EDB2A020E1200FC0EDBCF04
:10AB5000E6FFFD0EDBCFE6FF1200145E000E155A75
:10AB6000F70E14C0DBFFF80E15C0DBFF14C0E9FFC1
:10AB700015C0EAFF1200DA20EA6EEF2AEECFF6FFE8
:10AB8000000EEF22EECFF7FFEF22EECFF8FF12001C
:10AB9000040EDBCFE6FF130EDB50E552E75C9ADFD5
:10ABA000DB5004DF060EDB501200090EDB500A0DED
:10ABB000F350DF24D00FE76E090EE7CFDBFFC0EFC5
:10ABC00054F0DB50F36E050EEEEF54F0F70EDBCFD2
:10ABD00014F0F80EDBCF15F01200DFCFE6FFCAEF5E
:10ABE00054F028DF030EECDE6FEF55F01CEC50F054
:10ABF000E552E552E552E55200091200BDDEEE5085
:10AC0000EFCFEAFFE96E010E1200130EDB50F36E78
:10AC1000040EEEEF54F0040EDB50F36E090EEEEF6F
:10AC200054F0DBCFE6FFCAEF54F0E76E050EE7CF36
:10AC3000DBFF12008BDFEDEF55F0DBCFE6FF86DFA9
:10AC4000F6EF55F0D950F90FE96EFF0EBBEF55F056
:0AAC5000E96E000EDA20EA6E120031
:06AC5A00D9CFE6FFE1CFB7
:10AC6000D9FF020EE126FD0EDBCF14F0DB06FE0E4F
:10AC7000DBCF15F001E2DB061450151011E0DE6A9F
:10AC8000DD6ADECF14F0DDCF15F0E30E145C0D0E9F
:10AC9000155805E2DF2A010E01E3DB2AF2D7E3D7DC
:10ACA000020EE15C02E2E16AE552E16EE552E7CFB5
:10ACB000D9FF1200D9CFE6FFE1CFD9FF060EE1267A
:10ACC0008D9296928D9096908D8496948A9A939A6E
:10ACD0008C92DE6ADE6ADE6ADD6ADD52DD52D9CF31
:10ACE000E9FFDACFEAFF640EEE5C000EEE58000ECC
:10ACF000EE58000EEE580AE2D9CFE9FFDACFEAFFAC
:10AD0000EE2A000EEE22EE22EE22E9D78C82DE6AD7
:10AD1000DE6ADE6ADD6ADD52DD52D9CFE9FFDACFC5
:10AD2000EAFF640EEE5C000EEE58000EEE58000EC8
:10AD3000EE580AE2D9CFE9FFDACFEAFFEE2A000E99
:10AD4000EE22EE22EE22E9D7AE0EE66E70D8E55284
:10AD5000DB0EE66E6CD8E552230EE66E68D8E5523F
:10AD6000D90EE66E64D8E552220EE66E60D8E55242
:10AD7000A10EE66E5CD8E552C80EE66E58D8E552D4
:10AD8000DA0EE66E54D8E552120EE66E50D8E55251
:10AD9000A80EE66E4CD8E5523F0EE66E48D8E55256
:10ADA000D50EE66E44D8E552A00EE66E40D8E552C8
:10ADB000810EE66E3CD8E552600EE66E38D8E5525C
:10ADC000D30EE66E34D8E552E66A31D8E552A60EC7
:10ADD000E66E2DD8E552AD0EE66E29D8E5528B0E03
:10ADE000E66E25D8E552AF0EE66E21D8E5520A0E82
:10ADF000E66EE66A32DFE552E552A40EE66E17D83B
:10AE0000E552400EE66E13D8E552020EE66E0FD8FC
:10AE1000E552100EE66E0BD8E552060EE15C02E23A
:10AE2000E16AE552E16EE552E7CFD9FF1200D9CFD2
:10AE3000E6FFE1CFD9FF956AFE0EDB508C6E8D8068
:10AE40008D828A9A8D948D928D828D849568E5523B
:10AE5000E7CFD9FF1200D9CFE6FFE1CFD9FF956A3E
:10AE6000FE0EDB508C6E8D808D828A8A8D948D9241
:10AE70008D828D849568E552E7CFD9FF1200D9CF36
:10AE8000E6FFE1CFD9FF020EE126B00EDF6EB80E6D
:10AE9000DF5C23E2DFCFE6FFCADFE552020EE66E9B
:10AEA000C6DFE552100EE66EC2DFE552010EDB6A28
:10AEB000DB50146E156AD890155004E6840E145CAD
:10AEC000000E155808E2FE0EDBCFE6FFC4DFE552A8
:10AED000010EDB2AEDD7DF2ADAD7020EE15C03E2AE
:10AEE00000D0E16AE552E16EE552E7CFD9FF1200EA
:10AEF000D9CFE6FFE1CFD9FF200E146EFE0EDBCFD7
:10AF0000E7FF1450E75EFE0EE7CFDBFFDBCFF6FF77
:10AF1000F76AF6BEF768050EF702F3CFF7FFF60201
:10AF2000F3CFF6FFF450F726700EF626BB0EF7228D
:10AF30000800F550E66E8FDFE552FE0EDBCFF6FF20
:10AF4000F76AF6BEF768050EF702F3CFF7FFF602D1
:10AF5000F3CFF6FFF450F726700EF626BB0EF7225D
:10AF6000010EF626000EF7220800F550E66E73DF9C
:10AF7000E552FE0EDBCFF6FFF76AF6BEF768050E68
:10AF8000F702F3CFF7FFF602F3CFF6FFF450F72600
:10AF9000700EF626BB0EF722020EF626000EF722E2
:10AFA0000800F550E66E57DFE552FE0EDBCFF6FFE8
:10AFB000F76AF6BEF768050EF702F3CFF7FFF60261
:10AFC000F3CFF6FFF450F726700EF626BB0EF722ED
:10AFD000030EF626000EF7220800F550E66E3BDF62
:10AFE000E552FE0EDBCFF6FFF76AF6BEF768050EF8
:10AFF000F702F3CFF7FFF602F3CFF6FFF450F72690
:10B00000700EF626BB0EF722040EF626000EF7226F
:10B010000800F550E66E1FDFE552E66A1CDFE552D8
:10B0200000D0E552E7CFD9FF1200D9CFE6FFE1CF3C
:10B03000D9FFE652FD0EDBCFE6FFF9DEE552020E48
:10B04000146EFC0EDBCFE7FF1450E726FC0EE7CFB3
:10B05000DBFFDB500F0BE66EEADEE552FC0EDB3861
:10B060000F0B0F0B100FE66EE2DEE552FE0EDBCF8C
:10B07000E6FF3EDFE55200D0E552E552E7CFD9FFCB
:10B080001200D9CFE6FFE1CFD9FFFC0EDB50B00FA5
:10B09000E76EFC0EE7CFDBFFFB0EDBCFE6FFFC0E1F
:10B0A000DBCFE6FFFD0EDBCFF6FFFE0EDBCFF7FFBB
:10B0B0000800F550E66EB9DFE552E552E552FD0EA7
:10B0C000DB2ADBCFF6FFFE0E01E3DB2ADBCFF7FF47
:10B0D0000800F5500CE0FD0EDBCFF6FFFE0EDBCFD7
:10B0E000F7FF0800F550E66E03DFE552E8D7E552BA
:10B0F000E7CFD9FF1200D9CFE6FFE1CFD9FFFC0E91
:10B10000DB50B00FE76EFC0EE7CFDBFFFB0EDBCFB3
:10B11000E6FFFC0EDBCFE6FFFD0EDBCFE9FFFE0E08
:10B12000DBCFEAFFEF50E66E80DFE552E552E552F5
:10B13000FD0EDB2ADBCFE9FFFE0E01E3DB2ADBCFCE
:10B14000EAFFEF500BE0FD0EDBCFE9FFFE0EDBCF99
:10B15000EAFFEF50E66ECCDEE552EAD7E552E7CFE4
:10B16000D9FF1200D9CFE6FFE1CFD9FF050EE126C6
:10B17000030EDB6A040EDB6A020E146EFA0EDBCFDE
:10B18000E7FF1450E726FA0EE7CFDBFFF90EDB509E
:10B19000B00FDF6EFB0EDB50B00FDF5C35E2DFCFB0
:10B1A000E6FF45DEE552FA0EDB500F0BE66E3FDEA2
:10B1B000E552FA0EDB380F0B0F0B1009E66E37DE87
:10B1C000E552010EDB6AFC0EDB50F36E010EDBCFA5
:10B1D000F4FFF350F45C16E2030EDB2A040E01E3E5
:10B1E000DB2AFD0EDBCFF6FFDB2AFE0EDBCFF7FFFF
:10B1F00001E3DB2A0800F550E66E2DDEE552010E74
:10B20000DB2AE1D7DF2AC6D7050EE15C03E200D0D6
:0EB21000E16AE552E16EE552E7CFD9FF120088
:02B21E00DACF85
:10B22000E4FFE2CFDAFFE652E552E5CFDAFF1100A4
:10B23000D8CFE4FFE0CFE4FFE46EDACFE4FFE2CF63
:10B24000DAFFE652E552E5CFDAFFE550E5CFE0FF61
:10B25000E5CFD8FF1000ECEC5CF057EC5DF08CEC27
:10B260005BF05AEC56F0E66A3FEC57F0E552E66ABE
:10B27000E66A990EE66EC10EE66E41EC58F0E552B4
:10B28000E552E552E5521200D2EC5EF0000901E110
:10B29000FBD70F01486949692BEF59F0D9CFE6FF79
:10B2A000E1CFD9FF020EE126500EDF6EDE524F0EC7
:10B2B000DD6E81B029D0320EE66EE66ADFCFE6FFA2
:10B2C00015EC58F0E552E552E552000171C014F05A
:10B2D00072C015F073C016F074C017F0712B000E19
:10B2E000722373237423D8800A0E1454000E15544D
:10B2F000000E1654000E175406E2716B726B736BDE
:10B30000746B010E706F1CD0320EE66EE66A010E91
:10B31000DBCFE6FF15EC58F0E552E552E5520001AF
:10B3200070050EE1715172117311741104E1706BAB
:10B33000010E08D005D07107000E725B735B745B61
:10B34000000E00D0146E020EE15C02E2E16AE552EA
:10B35000E16E1450E552E7CFD9FF1200D9CFE6FFD6
:10B36000E1CFD9FF260EE1268CEC5BF08DDF130ECA
:10B37000C26EC450F36EF350C324146E156A000EEF
:10B38000152214C0DEFF15C0DDFFDECFE6FFDDCFE6
:10B39000E6FF960E146EC10E156E166A14C0E6FF17
:10B3A00015C0E6FF16C0E6FF000EE66E010EE66E63
:10B3B0001EEC5FF0176E070EE15E1750040EE66E8E
:10B3C000020EE66E000EE66E010EE66E7BEC58F0A5
:10B3D000E552E552E552E55261DFE66AEFEC5CF0DA
:10B3E000E552080EF3CFDBFF090EF4CFDBFF030EAF
:10B3F000E66EEFEC5CF0E552060EF3CFDBFF070ED6
:10B40000F4CFDBFF010EE66EEFEC5CF0E552040ECC
:10B41000F3CFDBFF050EF4CFDBFF130EC26ED95066
:10B42000060FE96EDACFEAFF200ED880EE54030E45
:10B43000ED540BE23C0EE66EE66A6C0EE66E15EC21
:10B4400058F0E552E552E5520AD03C0EE66EE66A47
:10B450004C0EE66E15EC58F0E552E552E552D95027
:10B46000080FE96EDACFEAFF200ED880EE54030E03
:10B47000ED540BE2460EE66EE66A720EE66E15ECD1
:10B4800058F0E552E552E5520AD0460EE66EE66AFD
:10B49000520EE66E15EC58F0E552E552E552020EFA
:10B4A000E66E6FEC5CF0E552E76E240EE7CFDBFF53
:10B4B000030EE66E6FEC5CF0E552E76E250EE7CF0B
:10B4C000DBFF0A0EDB6A0B0EDB6A250EDBCF14F006
:10B4D00014C015F0146A0A0E14C0DBFF0B0E15C061
:10B4E000DBFFD9500A0FE96EDACFEAFF000ED880F1
:10B4F000EE54000EED5414E20A0EDBCF14F00B0EE6
:10B50000DBCF15F00A0E0B6E0C6A14C006F015C0E6
:10B5100007F0D8EC60F002C014F003C015F017D0AB
:10B520000A0EDBCF14F00B0EDBCF15F0146C151EDA
:10B53000000E15220A0E0B6E0C6A14C006F015C020
:10B5400007F0D8EC60F002C014F003C015F014C08E
:10B55000E6FF15C0E6FF0A0EDBCF16F00B0EDBCFC1
:10B5600017F00A0E0B6E0C6A16C006F017C007F033
:10B57000D8EC60F006C016F007C017F016C0E6FF62
:10B5800017C0E6FF8C0E186EC10E196E1A6A18C02D
:10B59000E6FF19C0E6FF1AC0E6FFD950100FE66EAD
:10B5A000000EDA20E66E1EEC5FF01B6E090EE15E07
:10B5B0001B50E66A040EE66ED950100FE66E000EC0
:10B5C000DA20E66E7BEC58F0E552E552E552E552A2
:10B5D000040EE66E6FEC5CF0E552E76E240EE7CFEA
:10B5E000DBFF050EE66E6FEC5CF0E552E76E250EB4
:10B5F000E7CFDBFF0C0EDB6A0D0EDB6A250EDBCF1F
:10B6000014F014C015F0146A0C0E14C0DBFF0D0EFC
:10B6100015C0DBFFD9500C0FE96EDACFEAFF000E40
:10B62000D880EE54000EED5414E20C0EDBCF14F073
:10B630000D0EDBCF15F00A0E0B6E0C6A14C006F06F
:10B6400015C007F0D8EC60F002C014F003C015F08C
:10B6500017D00C0EDBCF14F00D0EDBCF15F0146CF1
:10B66000151E000E15220A0E0B6E0C6A14C006F091
:10B6700015C007F0D8EC60F002C014F003C015F05C
:10B6800014C0E6FF15C0E6FF0C0EDBCF16F00D0E62
:10B69000DBCF17F00A0E0B6E0C6A16C006F017C04F
:10B6A00007F0D8EC60F006C016F007C017F016C01F
:10B6B000E6FF17C0E6FF820E186EC10E196E1A6AF9
:10B6C00018C0E6FF19C0E6FF1AC0E6FFD950100FF8
:10B6D000E66E000EDA20E66E1EEC5FF01B6E090EC1
:10B6E000E15E1B50E66A050EE66ED950100FE66E5D
:10B6F000000EDA20E66E7BEC58F0E552E552E5529A
:10B70000E55235D6260EE15C02E2E16AE552E16ED1
:08B71000E552E7CFD9FF12005A
:08B71800D9CFE6FFE1CFD9FF14
:10B72000030EE12659D8736A820E726E739C94944C
:10B730009396958C7288728A949EE66AD0D8E55268
:10B74000E76E020EE7CFDBFF0000D950020FE96E73
:10B75000DACFEAFFEF50070B020801E00000140EF9
:10B76000E66EBDD8E552E76E020EE7CFDBFF020EB4
:10B77000DB96DB88020EDB80DB92DB94020EDBCFF4
:10B78000E6FF140EE66E3AD8E552E552010EE66E7B
:10B79000A6D8E552DE6EDD6A0000110EE66E9FD877
:10B7A000E552DE6EDD6A0000E66A110EE66E26D80E
:10B7B000E552E5520000110EE66E91D8E552DE6EBC
:10B7C000DD6A0000030EE15C02E2E16AE552E16E2F
:10B7D000E552E7CFD9FF1200550EA76EAA0EA76E4D
:10B7E0000E01FF91090ECC6F0A0ED36F170EFB6F7F
:10B7F000550EA76EAA0EA76EFF811200D9CFE6FFE5
:10B80000E1CFD9FFE652DF6AFE0EDB50140804E0F8
:10B81000FE0EDB50340806E1140EE66E60D8E552E9
:10B82000E00BDF6E8B9EA49EFE0EDB50756EA4AE09
:10B83000FED7000000000000000000000000000033
:10B8400000000000000000000000000000000000F8
:10B8500000000000000000000000000000000000E8
:10B8600000000000000000000000000000000000D8
:10B8700000000000000000000000000000000000C8
:10B8800000000000000000000000000000000000B8
:10B8900000000000000000000000000000000000A8
:10B8A0000000000000000000000000000000000098
:10B8B0000000A49EFE0EDB500A0805E1FD0EDB50E1
:10B8C0007F0B756E04D0FD0EDB50DF10756EA4AEDD
:10B8D000FED78B8EE552E552E7CFD9FF1200D9CFC4
:10B8E000E6FFE1CFD9FF8B9EA49EFE0EDB508009C0
:10B8F000756EA4AEFED7000000000000000000003E
:10B900000000000000000000000000000000000037
:10B910000000000000000000000000000000000027
:10B920000000000000000000000000000000000017
:10B930000000000000000000000000000000000007
:10B9400000000000000000000000000000000000F7
:10B9500000000000000000000000000000000000E7
:10B9600000000000000000000000000000000000D7
:10B97000000000000000A49E756AA4AEFED78B8E66
:0CB98000755000D0E552E7CFD9FF12004F
:04B98C00030EB16E87
:10B99000B392B390B396B288B28EB290B292A4949E
:10B9A000B38E12002F0E926E0F01E00E486F1F0E25
:10B9B000496FC18EC19CC70EC1140809C16EF80E33
:10B9C000C1140209C16E498FC29CC29EC30EC2142B
:10B9D0000809C26EC2801200D9DFD2EF5CF0D9CF65
:10B9E000E6FFE1CFD9FF020EE126FE0EDB500F0B82
:10B9F000F36EF346F346C30EC214F310C26EFE0E8E
:10BA0000DB50EA6AFB0FE96E010EEA22EF503F0BB2
:10BA1000F36EF346F346030EB114F310B16EB38E1A
:10BA2000B3820000000000000000000000000000E1
:10BA30000000000000000000000000000000000006
:10BA400000000000000000000000B392B28000007F
:10BA500000000000000000000000000000000000E6
:10BA600000000000000000000000000000000000D6
:10BA7000000000000000B2909E9CC2829EACFED7E7
:10BA8000C3CFDEFFC4CFDDFFDECF14F0DDCF15F076
:10BA900014C0F3FF15C0F4FF00D0020EE15C02E217
:10BAA000E16AE552E16EE552E7CFD9FF1200D9CF46
:10BAB000E6FFE1CFD9FF030EE126020EDB6A040E9A
:10BAC000F36E020EDBCFF4FFF350F45C21E22AD8D0
:10BAD000EF6A30D80CE226D8EF501F0803E122D8D5
:10BAE000EF6A13D01FD8EF2A25D8F5E30ED02CD853
:10BAF0000CE218D8EF50E10803E114D8EF6A05D042
:10BB000011D8EF062BD820D8F4E3020EDB2AD7D7C2
:10BB1000030EE15C02E2E16AE552E16EE552E7CF35
:10BB2000D9FF1200020EDB50EA6AFB0FE96E010E2C
:10BB3000EA22120013D8DECF14F0DDCF15F0200E6C
:10BB4000145C030E15581200D9CFE9FFDACFEAFFD3
:10BB5000200ED880EE54030EED541200020EDBCFFF
:10BB6000E6FF3DDFE552F3CFDEFFF4CFDDFF12004D
:10BB7000000000000000004F000000070007001454
:10BB80007F147F14242A7F2A122313086462364903
:10BB90005522500005030000001C224100004122F4
:10BBA0001C0014083E081408083E08080050300025
:10BBB000000808080808006060000020100804025F
:10BBC0003E5149453E00427F400042615149462175
:10BBD00041454B311814127F1027454545393C4AE1
:10BBE0004949300171090503364949493606494931
:10BBF000291E003636000000563600000814224187
:10BC000000141414141400412214080201510906EE
:10BC1000324979413E7E1111117E7F494949363EB4
:10BC2000414141227F4141221C7F494949417F09CD
:10BC30000909013E4149497A7F0808087F00417F90
:10BC400041002040413F017F081422417F40404095
:10BC5000407F020C027F7F0408107F3E4141413E3D
:10BC60007F090909063E4151215E7F09192946468F
:10BC70004949493101017F01013F4040403F1F20B8
:10BC800040201F3F4038403F63140814630708708A
:10BC900008076151494543007F41410002040810F3
:10BCA000200041417F000402010204404040404026
:10BCB000000102040020545454787F48444438382A
:10BCC00044444420384444487F3854545418087E2F
:10BCD0000901020C5252523E7F0804047800447D50
:10BCE00040002040443D007F1028440000417F4038
:10BCF000007C041804787C080404783844444438F0
:10BD00007C14141408081414187C7C0804040848D3
:10BD100054545420043F4440203C4040207C1C208C
:10BD200040201C3C4030403C44281028440C5050DB
:10BD3000503C4464544C44000836410000007F00ED
:0BBD400000004136080002010204026E
:01BD4B0000F7
:04BD4C000101FFB141
:10BD500022D0FF838B809490550EA76EAA0EA76EFB
:10BD60000E01FF910E0ED16F550EA76EAA0EA76E93
:10BD7000FF810F0EBA6ECF0EBA140009BA6EBB6AFD
:10BD80000F01526B800ECB6E040ECA6EA496600E2D
:10BD9000776E7F0E766E12000101FF91FF938B800C
:10BDA000949012000101FFA109D08B50010B04E116
:10BDB0009450010B01E1010CFF91C8DF0101FFA3C9
:10BDC000C5DFA4A63AD0A496BA50300BE842E842A8
:10BDD000E842E842030819E1400EBB5C10E18B9099
:10BDE0009490BA6ACA6A0E01D16B0F01526BCB688C
:10BDF000766A7768A4960101FF81FF93010CBB2A44
:10BE0000CF0EBA140009BA6E000CBA0EE96E0F0E0E
:10BE1000EA6EEF50300BE842E842E842E842E82A96
:10BE2000E850030BF36EF46EF346F346F346F34625
:0CBE3000CF0EEF14F310EF6EF450000C76
:04BE3C00D9CFE6FF75
:10BE4000DACFE6FFE1CFD9FFE2CFDAFFE652E652E2
:10BE5000E652E652D950F90F146EFF0EDA20156E35
:10BE6000020E14C0DBFF030E15C0DBFF020EDBCF9A
:10BE7000E6FF030EDBCFE6FFF90EDBCFE6FFFA0E9F
:10BE8000DBCFE6FFFB0EDBCFE6FFD950FC0FE66E03
:10BE9000FF0EDA20E66E32EC50F0146E070EE15C15
:10BEA00002E2E16AE552E16E1450F3CFDEFFF4CF17
:10BEB000DDFFFC0EDBCFE9FFFD0EDBCFEAFFEF6A13
:10BEC000DECF14F0DDCF15F014C0F3FF15C0F4FF82
:10BED000040EE15C02E2E16AE552E16EE552E5CF73
:08BEE000DAFFE7CFD9FF1200E1
:08BEE8001E0EF66EA00EF76EAF
:10BEF000000EF86E00010900F550656F0900F5505D
:10BF0000666F03E1656701D03DD00900F550606FB1
:10BF10000900F550616F0900F550626F09000900D2
:10BF2000F550E96E0900F550EA6E090009000900B4
:10BF3000F550636F0900F550646F09000900F6CFF2
:10BF400067F0F7CF68F0F8CF69F060C0F6FF61C026
:10BF5000F7FF62C0F8FF0001635302E1645307E09A
:10BF60000900F550EE6E6307F8E26407F9D767C081
:10BF7000F6FF68C0F7FF69C0F8FF00016507000E13
:06BF8000665BBFD7120052
:0ABF8600D9CFE6FFDACFE6FFE1CFE6
:10BF9000D9FFE2CFDAFFFB0EDBCF14F0FC0EDBCFD4
:10BFA00015F00001800E15141AE1FB0EDBCFE9FF3E
:10BFB000FC0EDBCFEAFFEECFF3FFEDCFF4FFEE2A6E
:10BFC000000EEF22F3CFE9FFF4CFEAFFFD0EDBCF47
:10BFD000EFFFEF50156AF36E15C0F4FF10D0FB0EA3
:10BFE000DB50FE0806E1FD0EDBCFE6FF1EEC61F044
:10BFF00005D0FD0EDBCFE6FF03EC50F0E552E55235
:0AC00000E5CFDAFFE7CFD9FF120009
:06C00A0004500902F3CF0F
:10C0100000F0F4CF01F00A02F3500126000EF420E4
:10C02000026E04500B02F3500226000EF420036E41
:10C0300004500C02F350032605500902F350012668
:10C04000F4500222000E032205500A02F350022689
:10C05000F450032205500B02F35003260650090248
:10C06000F3500226F450032206500A02F35003262E
:0AC0700007500902F35003261200E6
:06C07A00FE0EE3CFE9FF1A
:10C08000FF0EE3CFEAFFF36AF46AEE5203E0F34AED
:10C09000F42AFBD71200FF0EE3CFF8FFE552FF0EA4
:10C0A000E3CFF7FFE552FF0EE3CFF6FFE552E66A76
:10C0B000E66AE66A0900F55209E0FD0EE32A05E1A9
:10C0C000FE0EE32A02E1FF0EE32AF4D7FD0EE3CFD2
:10C0D00005F0FE0EE3CF06F0FF0EE3CF07F01200EF
:10C0E00007C013F006C012F006500B02F4CF05F0A3
:10C0F000F3CF04F007500C02F4CF07F0F3CF06F0B3
:10C100000B02F3500526F4500622E86A072212506B
:10C110000C02F3500526F4500622E86A07220CAE02
:10C1200096EF60F01250065E1350075A13AE000CE3
:0AC130000B50065E0C50075A000C7D
:06C13A00036A026A016ABB
:10C14000006A200EE76ED8900436053606360736AC
:10C1500000360136023603360950005C0A50015899
:10C160000B5002580C50035809E30950005E0A5066
:10C17000015A0B50025A0C50035A042AE72EE4D7F6
:02C180001200AB
:0EC18200593A202532642E256400783A202593
:10C1900032642E256400256400205049433138461E
:0FC1A0002053746172746572204B697420200003
:10C1B000036A026A100EE76ED8900636073602361A
:10C1C00003360B50025C0C50035805E30B50025E23
:0CC1D0000C50035A062AE72EF0D712008C
:04C1DC00F36AF46AA4
:10C1E000FF0EE124E96EFF0EE220EA6EED6607D055
:10C1F0002F0EEF6404D03A0EEF6001D0F32A120044
:10C20000C00EF36E00EE00F00E0E01D81200EA60D0
:10C2100002D0EE6AFCD7F350E9601200EE6AFCD758
:10C220001DEE00F02DEE00F0F86A0F9C74EC5FF04C
:0CC2300007EC50F0AEEC59F0FBD7120008
:04C23C00FF0EE350BE
:10C24000ADBA04D0B06AAC8EAD8A949CADA2FED7D4
:08C25000AE6EF36EF46A1200F9
:08C25800303132333435363742
:09C260003839616263646566000F
:01FFF800AA5E
:01FFF900F710
:01FFFA001FE7
:01FFFB00FF06
:01FFFC0063A1
:01FFFD00F80B
:01FFFE008181
:01FFFF00F110
:00000001FF
